:020000021000EC
:10C000000040002061CB01009DCB01009FCB0100CF
:10C010000000000000000000000000000000000020
:10C02000000000000000000000000000A1CB0100A3
:10C030000000000000000000A3CB0100A5CB010020
:10C04000A7CB0100A7CB0100B1DB0100A7CB01000A
:10C05000A7CB010000000000A7CB0100A7CB010087
:10C06000A7CB0100A7CB0100A1D50100A7CB010000
:10C07000A7CB0100A7CB0100A7CB0100A7CB0100F4
:10C08000A7CB0100DDDD0100A7CB0100A7CB01009C
:10C09000A7CB0100A7CB0100A7CB0100A7CB0100D4
:10C0A000A7CB0100A7CB01000000000000000000AA
:10C0B0000000000000000000000000000000000080
:10C0C00010B5064C2378002B07D1054B002B02D06E
:10C0D000044800E000BF0123237010BD8028002029
:10C0E000000000007C2D020008B5084B002B03D097
:10C0F0000748084900E000BF07480368002B03D049
:10C10000064B002B00D0984708BDC0460000000039
:10C110007C2D0200842800208028002000000000E0
:10C12000164B002B00D1144B9D46402292029A1AC6
:10C13000924600218B460F461348144A121A03F008
:10C14000B2F90F4B002B00D098470E4B002B00D0BC
:10C1500098470020002104000D000D48002802D05F
:10C160000C4800E000BF03F06FF92000290001F047
:10C17000EDF803F053F9C04600000800004000202D
:10C180000000000000000000802800209035002002
:10C19000000000000000000010B50C20002100F09D
:10C1A000E9FF084C0521201C00F0B3FC0021201CF5
:10C1B00000F0AFFC01210842F8D10C2000F0DAFFBA
:10C1C00010BDC046302D002010B50A20012100F01E
:10C1D000A9FF0A20012100F0CDFF0021112000F06D
:10C1E000A1FF084C201C00F08DFC201C064900F02B
:10C1F000A4FC201C002100F097FC201C012100F071
:10C20000A1FC10BD302D002000127A0010B5FFF700
:10C21000DBFF0C20002100F0ADFF1B4C0621201C91
:10C2200000F077FC0C20012100F0A4FF0C2000217D
:10C2300000F0A0FF201C012100F06BFC201C00215D
:10C2400000F067FC0C20012100F094FF0C2000217D
:10C2500000F090FF201C062100F05BFC0C20012167
:10C2600000F088FF0C20002100F084FF201C6021DA
:10C2700000F04FFC01210C2000F07CFFFFF78CFF49
:10C28000201C00F04BFC10BD302D002070B5051CAB
:10C290000E1CFFF799FFFFF77FFF0C20002100F035
:10C2A00069FF154C0621201C00F033FC0C200121F5
:10C2B00000F060FF0C20002100F05CFF201C022138
:10C2C00000F027FC290CC9B2201C00F022FC290A2E
:10C2D000C9B2201C00F01DFCE9B2201C00F019FCC2
:10C2E000311C201C00F015FC01210C2000F042FF45
:10C2F000201C00F013FC70BD302D00200C2008B570
:10C30000002100F037FF012000F0FAFE112000F0BC
:10C3100051FF0028FAD00C20012100F02BFF08BDAE
:10C32000F7B5071C0E1C0192012A02D87ED10978AC
:10C330007AE0FFF749FFFFF72FFF0C20002100F004
:10C3400019FF3B4C7021201C00F0E3FB0C20012165
:10C3500000F010FF0C20002100F00CFF0621201C33
:10C3600000F0D7FB0C20012100F004FF0C2000217D
:10C3700000F000FFAD21201C00F0CBFB390CC9B24E
:10C38000201C00F0C6FB390AC9B2201C00F0C1FB1A
:10C39000F9B2201C00F0BDFB3178201C00F0B9FB85
:10C3A0007178201C00F0B5FB0C20012100F0E2FEAA
:10C3B000FFF7A4FF0225019B0C20013B0021AB42AB
:10C3C00017DD00F0D7FEAD21201C00F0A2FB715D4F
:10C3D000201C00F09EFB73195978201C00F099FB7B
:10C3E00002350C20012100F0C5FEADB2FFF786FF3B
:10C3F000E1E700F0BFFE0421201C00F08AFB0C20C6
:10C40000012100F0B7FE0C20002100F0B3FE8021D6
:10C41000201C00F07EFB0C20012100F0ABFE019BF4
:10C420009D4203D2715DE819FFF730FFF7BDC046AA
:10C43000302D0020F8B50D1C171C061CFFF7C4FE9C
:10C440000C20002100F096FE134C0321201C00F06C
:10C4500060FB290CC9B2201C00F05BFB290AC9B2A1
:10C46000201C00F056FBE9B2201C00F052FB351CEA
:10C47000AB1B9BB2BB4206D2201C002100F049FB43
:10C4800028700135F4E701210C2000F073FE201C18
:10C4900000F044FBF8BDC046302D002008B50A204E
:10C4A000012100F03FFE1020012100F03BFE122090
:10C4B000012100F037FE1120012100F033FE16208B
:10C4C000012100F02FFE1520012100F02BFE142089
:10C4D000012100F027FE1320012100F023FE08BDFA
:10C4E00008B50720012100F045FE0B20002100F0D7
:10C4F00041FE0820002100F03DFE0B20012100F04C
:10C5000011FE0720002100F00DFEFFF7C7FF08BD58
:10C5100008B50B20002100F02DFE0021082000F0BE
:10C5200029FE012000F0F7FD0820012100F022FE85
:10C53000072000F03FFE0028FAD008BD38B5011CE6
:10C540000125041C29400A2000F014FEA107C90F90
:10C55000102000F00FFE6107C90F122000F00AFE44
:10C560002107C90F112000F005FEE106C90F1620B2
:10C5700000F000FEA106C90F152000F0FBFD6106CA
:10C58000C90F142000F0F6FDE109132000F0F2FDC0
:10C59000291C0B2000F0EEFD0B20002100F0EAFD2D
:10C5A00038BD10B50A20012100F0E4FD1020012162
:10C5B00000F0E0FD1220012100F0DCFD112001213E
:10C5C00000F0D8FD1620012100F0D4FD1520012136
:10C5D00000F0D0FD1420012100F0CCFD132001213A
:10C5E00000F0C8FD0A240B20012100F0C3FD013C2E
:10C5F0000B20002100F0BEFD002CF4D110BD000086
:10C60000F8B5FFF76DFFFFF783FF204C0021201CDA
:10C610000522FFF70FFF2378AA2B36D1A578637880
:10C620002D021D43E37805211B041D4323791B06BE
:10C630001D434E1CFF36AE4211D28022201C5200F8
:10C64000FFF7F8FEFFF72AFF0027E05DFFF776FF10
:10C65000013780235B009F42F7D1311CE9E7A942F3
:10C6600002D3FFF79EFF10E0053DEEB2201C321C06
:10C67000FFF7E0FEFFF712FF0025EBB2B342F0D266
:10C68000605DFFF75BFF0135F7E7F8BDAD280020DF
:10C6900008B50C4800F042FA0B20002100F06AFDBA
:10C6A0000820012100F03EFD0820002100F062FD7D
:10C6B0000720002100F036FD0720012100F05AFD7F
:10C6C00008BDC046302D002008B50C20012100F027
:10C6D00029FD0C20012100F04DFD0A20012100F070
:10C6E00021FD0A20012100F045FDFFF76DFD072027
:10C6F000012100F017FD0720002100F03BFD08207C
:10C70000002100F00FFD0B20012100F033FD0B2074
:10C71000002100F007FD08BD10B50620012100F042
:10C7200001FD0920012100F0FDFC0520012100F0A0
:10C73000F9FC0620012100F01DFD0920012100F077
:10C7400019FD0520012100F015FD0C20012100F04C
:10C75000E9FC0C20012100F00DFD0B20012100F06F
:10C76000E1FC0820012100F0DDFC0720002100F0A1
:10C77000D9FC0720012100F0FDFC0D20002100F074
:10C78000D1FC0B4CE121201C490200F0CBFD201C08
:10C79000084900F095FDFFF733FFFFF795FF0820EC
:10C7A000002100F0BFFC0D20002100F0BBFC10BDFB
:10C7B000443500207DCA010070B5FF240E1C211AEB
:10C7C0000620151C00F0E0FBA11B092000F0DCFB9B
:10C7D000611B052000F0D8FB70BD10B50020FA24C5
:10C7E000011CFF226400FFF7E7FF201C00F093FC10
:10C7F0000020011C021CFFF7DFFF201C00F08BFC57
:10C8000010BD0000F7B5934C2378271CDBB2022B38
:10C810000DD0032B00D119E1012B00D018E1FFF757
:10C8200037FF022323708C4B00221A7010E18B4DCE
:10C83000281C00F0E7FC031CC6B2010400D507E188
:10C84000854C2078052800D902E102F035FE032C42
:10C8500051A5BBF0824A00231360824A1360462E22
:10C8600005D1814A1370814A1370012306E0562EC8
:10C870000AD17D4A13707D4A012313702370281C4E
:10C88000522100F0E7FCE3E0522E06D1764A012364
:10C8900013702370281C311CF3E7452E00D0D7E01D
:10C8A000FFF7B4FC8BE06E4ADBB21068411CC0009D
:10C8B00083406C4811600668334303606C48036032
:10C8C000032900D8C4E000231360674B1B785BB2D8
:10C8D000002B06D003232370FFF702FEFFF718FE9C
:10C8E00003E002232370FFF791FC281C4F21C8E7C7
:10C8F0005B4F3B68002B03D10520311CFFF7C6FCC2
:10C900003868421ED2B2019201995A4A431C5654C9
:10C910003B60161CFF2907D1002B05D0111C80227B
:10C92000FA385200FFF7FCFC4E4B38681B689842FF
:10C9300000D08DE0019AFF2A05D00430801A311C06
:10C940000132FFF7EDFC322000F0DAFB3F680126F0
:10C950000537494B3A1CF118C900CA40301CD1B206
:10C96000FFF794FC0136322000F0CAFB052EF0D10F
:10C97000AA210020FFF78AFC322000F0C1FB281C0E
:10C98000442100F067FC394B1B785BB2002B01D0CF
:10C9900004234AE026705BE0301CFFF7CFFD304AED
:10C9A0001368013313602F4A1268934250D1FFF786
:10C9B000F8FD0023237003233B70FFF785FE281C3E
:10C9C00044215EE7532E43D1254B00211A680532DE
:10C9D0001A60234A1668B14226D24B1CFF330193DA
:10C9E000B34202D9761AB6B201E080267600214F12
:10C9F000321C381CFFF71EFD2B68391C5B68321C8B
:10CA0000281C98470020021CFF21FFF7D5FE0520B7
:10CA100000F081FB0020011C021CFFF7CDFE052069
:10CA200000F079FB0199D4E70523237010E04C2E28
:10CA30000ED1FFF7E5FD281C442100F00BFC00237C
:10CA4000237003233B70FFF73FFE01E0FFF7C5FEB5
:10CA5000F7BDC04600280020A12800204435002052
:10CA6000A42800209C280020A0280020AC2800201A
:10CA7000A8280020AD280020FFFFFF1F38B500299F
:10CA800014D10B4D2B78032B10D10A4C201C00F035
:10CA9000ABFB00280ADD201C00F0CAFBC0B27228E4
:10CAA00004D1201C00F0AEFB01232B7038BDC04622
:10CAB0000028002044350020F7B5041C081C1F1C6A
:10CAC000161C00F055FA051C301C00F051FA061C2B
:10CAD000381C00F04DFA01235B42311C021C00930C
:10CAE000201C2B1C00F032F90022201C131C0821F2
:10CAF00000F0B2F8201C024900F0E6F8F7BDC0468D
:10CB000040420F0008B5102112221123FFF7D4FF75
:10CB100008BD08B500F004FAC0B208BD0268A02341
:10CB20000021DB00D150704708B50A1E032A03D844
:10CB30000821002300F090F808BD08B500F0C4F803
:10CB400008BD00000268054B012901D1D15802E05F
:10CB5000D15801200143D1507047C0465405000010
:10CB60000848026803210A4302600749074A084B44
:10CB70009B1A03DD043BC858D050FBDC05488047B6
:10CB80000548004724050040882D020000280020A9
:10CB900080280020A9CB010021C10100FEE7FEE7AB
:10CBA000FEE7FEE7FEE7FEE7234B10B51A78181CF8
:10CBB000012A12D1214B1B6819070ED1204BF022FC
:10CBC0001B68E024191C1140234204D11D4B1B6833
:10CBD000134202D120E03029F8D00378012B0DD187
:10CBE000164A1268110709D1154A1168F02211403E
:10CBF000402903D113490968114215D08022A3238B
:10CC0000D2050121DB00D1500F4B002098609160CC
:10CC10009A68002AFCD00DE00C490D4A1160802171
:10CC20000C4A09021160D8E7C1228021D200C9054F
:10CC30008B50E3E710BDC046E00F00F0E40F00F0BA
:10CC4000E80F00F0EC0F00F0FC000040DFFF07C031
:10CC500004050040186C004070B51D1CA023041C86
:10CC6000161CDB00002D03D040680022C25001E0FA
:10CC70000268D550082902D0104800F0CCFB032EE2
:10CC800008D8301C02F018FC090B0204042207E04B
:10CC9000062205E00A4800F0BEFB002200E0022266
:10CCA000A023DB000748002D03D061680A50022250
:10CCB00002E021680A500122CA5070BD042502001A
:10CCC0001D25020054050000036810B55A1C2ED023
:10CCD000A022174CD20000209850101C154AA142E7
:10CCE00002DC802189041FE0134CA14202DC802178
:10CCF000C90419E0114CA14202DC8021090513E0AE
:10CD00000F4CA14202DC802149050DE00D4CA142EF
:10CD100002DC8021890507E00B4CA14202DC802166
:10CD2000C90501E080210906995001221A5010BD61
:10CD30008FD00300240500001FA107003F420F0011
:10CD40007F841E00FF083D00FF117A00F7B50093B5
:10CD500008AB1B78051C5BB20F1C161C019301333A
:10CD600029D1624B1A78022A10D15978FAB291422D
:10CD70000CD19978F2B2914208D10098DA78C3B216
:10CD80009A4203D101232B72594C3BE0594B1A783C
:10CD9000D2B2022A0FD15878F9B288420BD19878D2
:10CDA000F1B2884207D10098D978C3B2994202D132
:10CDB0002A72514C26E04F4B1A78002A0BD10222DE
:10CDC000F9B200981A705970F1B29970C1B2D97065
:10CDD0002A72494C13E0454B1A78002A0CD10222E2
:10CDE0001A700099FAB25A70F2B29A70CAB2DA7036
:10CDF00001232B723E4C02E0404800F00CFB019AEC
:10CE000001322ED101233E485B426B600121002399
:10CE10002C6023502150E0204000C019A022D205F0
:10CE200080008150374827500098C130FF30800083
:10CE300081500098A121C9006050E02040003118C5
:10CE400089008B50A222D200A650FC34281CE3603B
:10CE500008211A1CFFF700FF281C2B49FFF734FF9D
:10CE600042E0012326495B42E0202B60002201239F
:10CE700040006C60C01962506350A021C905800059
:10CE80004250E02040008019800042500098C1309C
:10CE9000FF30800042500198C130FF308000425086
:10CEA000A221C9006750174900986650A121C90006
:10CEB0006050164901986050211CFC318A60CA629A
:10CEC000A721C9006350A921C90063501048114926
:10CED0006050114911486050802104208900605041
:10CEE000281C0821FFF7B8FEF7BDC04654350020C6
:10CEF0000030004058350020004000402E25020040
:10CF0000FC0F00000C05000040420F00140500005B
:10CF10003D2D002044050000340500003C2D00207C
:10CF200003681A1CFC32D268002AFAD1064A9950CA
:10CF300003681A1CFC32D1680129FAD10021D160A2
:10CF4000A322D200985870471C050000F8B5061CB3
:10CF50000C1C8F180025BC4207D0336821781B6851
:10CF6000301C984701342D18F5E7281CF8BD000047
:10CF7000FF23182801D8024B1B5C58B27047C046EB
:10CF80003F25020000000000F0B589B0071C0C1C12
:10CF9000FFF7EEFF061C701C04D153485349822250
:10CFA00000F0E3F9524B00215956B1420AD0012258
:10CFB0009A56B24208D09B785BB2B34206D0013198
:10CFC0000AD124E0002302E0012300E00223494AC1
:10CFD0001078082806D10DE001321AD001337AD139
:10CFE000022517E0082802D90838C44002E00822C8
:10CFF000101A844007AD2B70201C03F0B9F83E498D
:10D0000002F0BCFB011C281C00F0F0FB63E00025D3
:10D0100000E001250195002C0ED13548FF23019A2F
:10D02000435507A8027000F07DFB381C012100F079
:10D0300079F8381C211C2DE02E4B187804F066FE80
:10D04000021C0B1C2749264801F062F8029003914C
:10D05000201C04F05BFE234B214A049005910298AA
:10D06000039904F0EBFA021C0B1C0498059902F0DA
:10D07000B1FA002811D01E48FF234355019B6A4690
:10D0800007A8137700F04EFB381C012100F04AF886
:10D09000381C012100F06EF81DE0019A6846027705
:10D0A000311C07A800F034FC124B1878082806D071
:10D0B00002D90838C44002E00823181A8440201C12
:10D0C00003F056F80C4902F059FB011C07A800F0C8
:10D0D0008DFB074B5E5509B0F0BDC046C046C0464B
:10D0E0000000000000000040582502006F250200EB
:10D0F000012800200428002000007F43C046C046CD
:10D1000038B5041C00F0D4FE051C00F0D1FE401B15
:10D11000A042FAD338BD08B5FA239B005843FFF765
:10D12000EFFF08BD30B587B00C1CFFF721FF051CD1
:10D13000431C04D10D480E490F2200F016F96B462E
:10D140001D70012C06D0002C04D0022C0BD1002124
:10D15000032501E0211C0025684600F0C3F968465C
:10D16000291C00F0B9F907B030BDC04658250200AF
:10D17000DF25020038B50D1CFFF7FAFE041C431C26
:10D1800004D109480949232200F0EFF80122A02325
:10D19000A240DB05141C002D02D0A121C90000E033
:10D1A00003495C5038BDC04658250200DF25020007
:10D1B0000C05000010B5FFF7DBFE041C431C04D176
:10D1C00006480749302200F0D0F8A223A022DB0055
:10D1D000D205D0580123E040184010BD5825020068
:10D1E000DF25020001207047044B80221201985A6B
:10D1F000034A9B5AC01A8005800D70473E2D0020BF
:10D2000002080000084B0949802000015A5A185AA8
:10D21000904206D0500001329205920D185C5A528D
:10D2200001E00120404270473E2D0020020800002E
:10D23000064B074A802109019A5A595A914202D055
:10D240005200D05A01E00120404270473E2D00209C
:10D250000208000007B5034B6846009300F028FD64
:10D260000EBDC0460020004007B5044B0093684641
:10D2700000F02CFD0028FAD007BDC0460020004079
:10D2800030B5074B802212019C5A064D611C5D5B34
:10D290008905890D8D4202D06400E052995230BD5B
:10D2A0003E2D00200208000000234360FA239B006B
:10D2B0008360024B083303607047C046502602006B
:10D2C00007B5054B009300230193994203D06846AC
:10D2D000012200F09BFC07BD0020004073B5101C2C
:10D2E0001E1C0C1CFFF744FE051C301CFFF740FE03
:10D2F0000B4B2A1C011C6846009300F0F7FB01232E
:10D300005B421A1C6846002100F0E8FC6846211CBC
:10D3100000F0C8FB68460021012200F083FC73BDC9
:10D320000020004008B500220123FFF7D7FF08BD09
:10D3300008B5034800F062FE0248FFF7B5FF08BDDC
:10D340003E2D0020443500207047704708B5FFF798
:10D35000FCFFFFF7F9FF00F04BFE08BD08B5002801
:10D3600000D1FEE700F01EF8FBE708B500F01AF860
:10D3700008BD000038B50023C356041C0D1C013342
:10D3800004D1064806492422FFF7EFFF6368002D09
:10D3900001D0E26800E02269136038BD78260200FF
:10D3A0009026020000B599B068460F2100F065F89C
:10D3B00006A80F2100F061F80CA80F2100F05DF81D
:10D3C00012A80F2100F059F868460121FFF7D2FF9B
:10D3D00006A80021FFF7CEFF0CA80021FFF7CAFF27
:10D3E00012A80121FFF7C6FF962000F056F8684604
:10D3F0000021FFF7BFFF06A80121FFF7BBFF0CA824
:10D400000121FFF7B7FF12A80021FFF7B3FF962015
:10D4100000F043F8D8E70FB4012008B501F0FEFF93
:10D4200038B50023C356041C0D1C013304D1064833
:10D4300006492422FFF799FF6368002D01D0E268B6
:10D4400000E02269136038BD7826020090260200B1
:10D4500070B50D1C041C161C00F026F801350BD00D
:10D46000201C311CFFF7DCFF201C012100F03AF8E2
:10D47000201C002100F030F870BD08B50022FFF735
:10D48000E7FF08BD38B5041C00F012FD051C00F0D4
:10D490000FFD401BA042FAD338BD08B5FA239B000C
:10D4A0005843FFF7EFFF08BD01704B1C0AD0012362
:10D4B0008B404360044BC360044B0361044B4361E6
:10D4C000044B83607047C046080500500C050050AF
:10D4D000100500501405005008B5007840B200F067
:10D4E0001FF808BD38B50023C356051C0C1C0133BA
:10D4F00004D1094809492A22FFF737FF002C01D03F
:10D50000012C07D10022AA56A023C132FF3292007B
:10D51000DB05D45038BDC046782602002F27020014
:10D5200038B5041C0D1C431C04D10A480A491A22B0
:10D53000FFF71BFFA023A000DB05C018E023DB00E2
:10D54000C2580C218A43C250C258AD001543C55081
:10D5500038BDC0467D260200CB27020002780D4B65
:10D560009200D218A223DB0010B58020D4584003CB
:10D570002043D050002902D0D158074806E0D058A7
:10D5800006490140D150D058802149020143D15071
:10D5900010BDC0460060004003000300FFFFFCFF19
:10D5A000114A00211165114A114B1188114A9950F5
:10D5B000114A1178002904D010490888A821C9000F
:10D5C00058505178002903D00C4948880C495850CC
:10D5D0009278002A04D0094A9188A922D200995051
:10D5E00001221A607047C046FCA0004006280020B7
:10D5F00000A000404C0500006235002008280020F3
:10D6000044050000164B002210B55A60904210D11C
:10D61000144A012198509950134A06219850A1228A
:10D62000D2009850A222D2009950104A1188104A74
:10D630009950104A410051308A5AFF3080001A50E8
:10D64000C2210D4A890054580C4820408024E4032C
:10D65000204350508021C900116001221A6010BD82
:10D6600000A00040FC0F0000040500000628002078
:10D670004C0500000828002000E100E0FFFF00FF4B
:10D68000E022520010B5A0238418DB05A40001227B
:10D69000E2500C4C82401A510B4B8900C9180B4ABE
:10D6A000A223DB00CA50C046C046C04601230B601F
:10D6B000074B00021843A223DB00C850C046C046F7
:10D6C000C04610BD0C05000000600040031F0200B2
:10D6D0000300030010B5002A02D0FFF73FFF17E058
:10D6E00002780C4B9200D218A223DB00D4580A48CF
:10D6F0002040D050002902D0D158084806E0D05828
:10D7000007490140D150D058802189020143D150AE
:10D7100010BDC04600600040FFFFEFFF03000300A4
:10D72000FFFFFCFF0378F7B5041CFF2B04D126484C
:10D730002649F422FFF719FE2378254A0021D15407
:10D74000244B00222578244E1A6501239D407360E6
:10D75000224B23491F88695A381C019102F0ACFC06
:10D76000002102F0EFF901F0BBFF1E4B1C4982B211
:10D77000EA526A52002A04D10121E952201C111CEC
:10D7800014E0BA4206D1013A201C0021EA52FFF708
:10D79000E5FE0DE0019A002A01D0BA4208D1019BB2
:10D7A000201CDA1B53425A41D2B20121FFF792FFEB
:10D7B0008022C12312039B00F2500B4A80239B005E
:10D7C000F25001233360F7BDD0290200E82902009E
:10D7D00062350020FCA0004000A000400628002088
:10D7E0005C35002008280020080800002C4BF7B505
:10D7F0002C4C00221A650123061C0D1C081C6360BA
:10D80000002101F003FF002809D1FE21281C890511
:10D8100001F010FF002803D0FE25AD0500E0002533
:10D82000214B347821491F886400615A381C0191CA
:10D8300002F042FC011C281C02F084F901F050FFA8
:10D840001B4B1A4982B2E2526252002A04D10121D2
:10D85000E152301C111C14E0BA4206D1013A301CCE
:10D860000021E252FFF77AFE0DE0019A002A01D072
:10D87000BA4208D1019B301CDA1B57427A41D2B21E
:10D880000121FFF727FF07498022C12312039B00D4
:10D89000CA50084A80239B00CA5001230B60F7BD81
:10D8A000FCA0004000A00040062800205C350020BD
:10D8B0000828002008080000CB17104A9B0F002002
:10D8C000106559180E480F4B01225A6089100E4AF4
:10D8D000814202D90121494202E0042900D80521F0
:10D8E00011808021C12209039200995007498022AA
:10D8F0009200995001221A607047C046FCA0004077
:10D90000FFFF000000A000400628002008080000DB
:10D91000F7B5041C0E1C081C514900F08DFBC5B264
:10D92000071CFF2D04D14F484F49CE22FFF71DFDA4
:10D930004E4BFFB2D95D012200290FD05978002942
:10D9400002D15A70151C0AE09978002902D19A7008
:10D95000022504E04648FFF75EFD00E0DA55301C82
:10D960006670291C2570FFF78BFE42496A00D2B20F
:10D97000414BAF007F18561C3F49D000C018B44639
:10D980003E4BF6007618C750F7503D4BAF00FF18DE
:10D99000A223DB00C7503B48F050081CA021C9005F
:10D9A0004658012301961F1C6646B740BC461F1C03
:10D9B00097403A1C6646019F32433A434250002D3D
:10D9C00002D18022D2059367281CFFF71BFE201C82
:10D9D0002D49FFF771FF257801222C4B2C4E9540E5
:10D9E00000211965AE5B2B4B2B4F7A6001961E8888
:10D9F000301C02F061FB002102F0A4F801F070FE7F
:10DA0000264B234982B2EA526A52002A04D10126E7
:10DA1000EE52201C111C14E0B24206D1013A201C27
:10DA20000021EA52FFF79AFD0DE00199002901D08B
:10DA3000B14208D1019B201C9A1B56427241D2B2BE
:10DA40000121FFF747FE8022C12312039B00FA50F9
:10DA5000134A80239B00FA5001233B60F7BDC04668
:10DA600068280200D5290200E8290200623500205A
:10DA7000862A02000060004000F00140140500000A
:10DA800040A100404CA10040204E0000FCA00040FE
:10DA90005C3500200628002000A000400828002057
:10DAA00008080000962210B50123D200914203DC41
:10DAB0009E210268C90212E00A4ADC00A458A14271
:10DAC00007DA013BDB00D21801685268064BCA50E6
:10DAD00007E00133112BEFD1802102684905024B89
:10DAE000D15010BDC82A020024050000F8B5284B0B
:10DAF000284C0360A023DB050F1C161C01211A59BA
:10DB0000B9400A431A511959802252000A431A5146
:10DB10001A590121B1408A431A5119591E4A051C4C
:10DB20000A4096211A518901FFF7BCFF2B681B4957
:10DB300000225A50A021C9000420585001219960A8
:10DB40001960191CFC31CA6015495A506A60A1223B
:10DB50000821D2009950134A0A219F50A222D200D4
:10DB600099501E517B1C03D0381C0321FFF7D8FCB1
:10DB7000711C03D0301C0321FFF7D2FC0A4B012299
:10DB80001A60291C0822094801F084FCF8BDC0462F
:10DB90000020004014050000FFFBFFFF6C050000A3
:10DBA0001C0500000C0500006835002074350020BD
:10DBB000124AC1239B00D15810B5080603D510495D
:10DBC000096A002911D1D3585A0716D50C4BDA68C7
:10DBD000002A12D00024DC60084AA323DB00D058BE
:10DBE000C0B2FFF74DFB211C00E00121054B186876
:10DBF000002802D0044B1B68984710BD002000404D
:10DC0000FC200040703500206C350020034B19606B
:10DC10004168034B8900CA507047C0466C350020EC
:10DC20007035002030B503681E4C1819444260411D
:10DC30004000002A1BD0002903D0012905D18021F2
:10DC400000E00421C12292009950174BC02292009B
:10DC500040B29C58C100FF258D40AC43C0258D408B
:10DC6000291C21439950012282401A6018E00029A2
:10DC700008D0012914D1C222920080249C509B58C4
:10DC80009B0806E0C2229200042199509B58012172
:10DC9000DB09994304D001238340181C034BD86748
:10DCA00030BDC04600E0FFBF00E100E004E100E05D
:10DCB00003681A1CFC32106A0128FAD10020106295
:10DCC000014AC9B2995070471C0500000368FC3333
:10DCD000186A01384342584170470000F7B50E1CDE
:10DCE00001930223041C0D1C171C9E43012E13D10B
:10DCF0001F4BA022D205D158301CB8400143D1504F
:10DD0000381C0321FFF70CFC2368A122D2009F508E
:10DD1000184A99580E439E50AB1E012B16D8144B2F
:10DD2000A022019ED2050125D158281CB040814374
:10DD3000D150301C0321FFF7F3FB2368A222D2004D
:10DD40009E500C4A99580D439D500FE0002D0DD167
:10DD500023680122A1215242C9005A50A221C900C0
:10DD60005A50044A0120995881439950F7BDC04642
:10DD7000140500006C0500000A490B4A88680B4B2B
:10DD8000002808D018680130186000208860022040
:10DD9000D2218140505006491B6852581806190A72
:10DDA00010437047FC1001400010014080350020F6
:10DDB000040500002F23C046C046C046C046C046EA
:10DDC000C046C046C046C046C046C046C046C04623
:10DDD000C046013B002BEED170470000174B70B5D9
:10DDE0009A68002A0AD0164A02201168013111608F
:10DDF00000229A601349D222824088505B6C114CF9
:10DE0000002B19D0104D2B78002B15D00F4B1E680E
:10DE1000FFF7B2FF361A002E0EDC084B00215964C2
:10DE2000D22280235B029200A3502970C221890074
:10DE30006350A35000F010F970BDC046FC100140C3
:10DE40008035002000100140853500207C35002001
:10DE500038B5124C2278002A1FD1114BA121C900DC
:10DE60005A500222D22191405A50C12191405A5019
:10DE70000C4AC421890055580B482840C0252D0262
:10DE8000284350508021C0208902400001251150B4
:10DE900011601D60FFF78EFF257038BD84350020AE
:10DEA0000010014000E100E0FF00FFFF0000000063
:10DEB00008B50B4B1B78002B01D1FFF7C9FFFFF70B
:10DEC0005BFF064B044A01F0E9FB4904C00B084321
:10DED00008BDC046C046C04640420F0000000000DA
:10DEE00084350020C046C0462F4B70B51B78061CF9
:10DEF000002B01D1FFF7ACFFFFF73EFF254B244A73
:10DF000001F0CCFB4B04C00B002400251843CD0BC3
:10DF10000023321CA4185D4180231B06984205D9BA
:10DF2000002E03DB1C4A1D4BA4185D41610CEB0362
:10DF30000B43E2031A481B4980185941154B144AF8
:10DF400001F08CFB194D041C2B78194E002B02D0CC
:10DF5000336898421BD0FFF70FFF201A022802DC1B
:10DF6000FFF70AFF841C2102124BA822D200090AE3
:10DF700099502A783460002A09D101222A70D221CE
:10DF80008022520289005A50C12189005A5070BD26
:10DF900040420F00000000000000000001000000EF
:10DFA0003F420F000000000084350020853500202E
:10DFB0007C35002000100140074B1A78002A0AD057
:10DFC000064A8021C220490280001150D2208000E0
:10DFD000115000221A707047853500200010014052
:10DFE000024B00229A605A647047C046FC10014000
:10DFF00008B5FEF791FBFEF705FCFCE7802210B5A3
:10E000000021D200041C01F04EFA802200231201EC
:10E01000A352024A201CA35210BDC04602080000B1
:10E020000023CB565A1C05D0834201D1486802E038
:10E030000C31F5E7181C704710B5041C431C07D0C1
:10E04000FFF7EEFF041C431C02D10248FFF7E3F97F
:10E05000201C10BD722B020008B5024800F004F825
:10E0600008BDC046C42B020038B50368041CDB6839
:10E07000984763685A682368002A02D19B689847CA
:10E0800014E05B681568984763682D1A002D08DC5A
:10E090005A68916859601B68002BEAD0506898470D
:10E0A000E7E75B68226818681369984738BD000085
:10E0B0000B1C011C021C30B519430220002900D1A1
:10E0C00030BD802109068B4216D00D4904205C1812
:10E0D0000C498C42F4D90C4D5C198C42F0D90B4C94
:10E0E000590049080320A142EAD9074C0020A14267
:10E0F000E6D150425041E3E7002AE1D0EFE7C046C5
:10E100000000F0FFFFFFDF7F0000F07FFFFF0F0048
:10E11000F0B546464F46C0B48FB0161C1F1C009089
:10E12000019100F0ADF9BC4A0023D356041C0D1C2C
:10E13000904602940395013305D0301C391CFFF73B
:10E14000B7FF002806D1029803990FB00CBC904687
:10E150009946F0BD00980199FFF7AAFF8146002873
:10E1600031D1301C391CA14B9F4A01F00FFA002815
:10E17000E9D001230493A94B04AC63604B462362AE
:10E18000009A019BA260E360994A9A4BA261E36105
:10E1900042460023D356266167615A1C0ED0022BDB
:10E1A0000CD0201C00F0EEFF002800D17BE0236A99
:10E1B000002B03D001F02CF9236A0360A269E36904
:10E1C00002920393BFE700980199884B864A01F0B9
:10E1D000DDF9002822D0301C391C844B824A01F022
:10E1E000D5F9051E2CD0012304938C4B04AC63603D
:10E1F00000232362009A019BA260E3607B4B7A4A72
:10E20000A261E36142460023D35626616761002B79
:10E21000C7D0774A774BA261E361CFE7201C291C66
:10E2200000F0A8FF8146002842D0201C291C6F4B1B
:10E230006D4A01F0ABF900286CD10294039582E796
:10E24000301C391C00F096FF002800D17BE7301C01
:10E25000391C664B644A01F09FF9002800D172E72F
:10E26000012304936D4B04AC6360009A019BA26090
:10E27000E36043461978256226616761002900D171
:10E280007AE05D4A5D4BA261E36102293CD101F075
:10E29000BFF821230360236A002B8FD001F0B8F868
:10E2A000226A02608AE701F0B3F8212303607EE767
:10E2B0000098019900F05EFF0028B6D0301C391C90
:10E2C00000F058FF0028B0D0201C291CFFF7F0FEFA
:10E2D00004AC002855D101230493504B20626360A5
:10E2E000009A019BA260E36043461D782661676146
:10E2F000002D41D03D493C48021C0B1C02F0A4FA01
:10E30000A061E161022DC2D0201C00F03BFF00287B
:10E31000C1D1BCE70098019900F02CFF029403954D
:10E32000002800D10FE7301C391C00F023FF0294B5
:10E330000395002800D106E704AC0423049326616A
:10E340006761364B636000232362009A019BA260E1
:10E35000E360264B244AA261E36142460023D35680
:10E36000022B04D0201C00F00DFF002893D101F0F7
:10E370004FF8222303608EE71C4B1B4AA261E36126
:10E38000C2E703230493254B2661676163604B4614
:10E390002362009A019BA260E36042460023D356A9
:10E3A000002B3DD1164A174B00980199A261E361F9
:10E3B0000E4B0D4A01F0F0F80028CED0124A134B54
:10E3C000301C391C02F0AAFE061C0F1C00F0E4FEF3
:10E3D000321C3B1C01F0DAF80028BED10C4A0D4B70
:10E3E000A261E361B9E7C046000000000000000040
:10E3F000000000000000F03F000000000000F0FFFF
:10E40000000000E0FFFFEF47000000000000E03FD9
:10E41000000000E0FFFFEFC70E280020CC2B020019
:10E42000104B0F4A00980199A261E3610E4A0F4B0D
:10E4300001F0B2F8002890D00D4A0E4B301C391C68
:10E4400002F06CFE061C0F1C00F0A6FE321C3B1CEA
:10E4500001F09CF8002800D07FE7074A074B7AE7D5
:10E46000000000000000F07F00000000000000003D
:10E47000000000000000E03F000000000000F0FF8E
:10E48000F0B55F4656464D464446F0B499464B4675
:10E490005C00934664088FB00D1C0F1C5A46211C6B
:10E4A0000090061C824602935846114337D06900FB
:10E4B000490888466849049588452BDC28D0664978
:10E4C0008C4227DC00D180E00021089104990029CA
:10E4D00000DA7EE0002833D15F4B9C4200D196E009
:10E4E0005E4B9C426AD002988023DB05984201D1A2
:10E4F00000F0E1FB5A4B0299994221D1049A002A7B
:10E500001EDB291C009800F04BFD061C0D1C08E0CA
:10E51000002ED4D0534A131C434433430AD14F4DE9
:10E520000026301C291C0FB03CBC90469946A246E0
:10E53000AB46F0BD4C4800F027FE061C0D1CF0E772
:10E540000098291C00F012FE534606908C46002BC2
:10E5500020D0FB0F013B0493049E089B33436AD0F9
:10E56000424B9C4200DC8DE0414B9C4201DC00F0C0
:10E5700035FC404B984500DC89E3029E002E00DC10
:10E5800089E334493248021C0B1C02F0C7FD061C0B
:10E590000D1CC6E74046002804D0304BBA00920854
:10E5A0009A42D6D1029C002C01DA00F0C4FB049EF2
:10E5B000002E00DA73E3069E6546B2E7029C002C4B
:10E5C00001DA00F076FC009EABE7002800D17BE783
:10E5D000A0E729498C422BDC26498C4200DC79E7F4
:10E5E00021158C4625498C4501DC00F086FC244B26
:10E5F00061465B1A111CD9400A1C9A40824200D025
:10E6000068E701220A4002239B1A089362E7154A31
:10E61000131C4344334300D181E7164B984500DC7B
:10E620007FE3029C002C00DA35E35E464D4678E736
:10E63000022108914EE70098009A291C2B1C02F039
:10E64000FDFF021C0B1C02F0FFF8061C0D1C68E706
:10E650009C7500883CE4377E0000F07F0000F03FAE
:10E660000000E03F000010C0002C02000000E0416C
:10E670000000F043FFFFEF3FFFFF3F4313040000A4
:10E6800033040000E24A0023904509DC0698C54B9C
:10E69000C34A614602F042FD3523069088465B423C
:10E6A0004046DC4902155218D21892460303DA4D4F
:10E6B000DA4A1B0B1D43934201DC00F0F6FBD84AFB
:10E6C000934201DC00F036FCD64B01229244ED1857
:10E6D00000240021069A2B1C06920793C900D24BF6
:10E6E00088464344186859680A900B910A9A0B9B14
:10E6F0000698079902F0A2FF0A9A0B9B061C0F1CB2
:10E700000698079901F084FD021C0B1CA648A74936
:10E7100002F09AF80C900D910C9A0D9B301C391C4C
:10E7200002F0FCFC029003910B1C802189056D1006
:10E73000802000220D430003009201939C4A9D4BD0
:10E7400029180B1900980199141C1D1C02F0E6FCF5
:10E75000021C0B1C301C391C02F070FF0A9A0B9B28
:10E76000061C0F1C201C291C02F068FF021C0B1C3D
:10E770000698079902F062FF021C0B1C0098019991
:10E7800002F0CCFC021C0B1C301C391C02F056FFA2
:10E790000C9A0D9B02F0C2FC069007910298039917
:10E7A000021C0B1C02F0BAFC041C0D1C221C2B1CAE
:10E7B00002F0B4FC804A814B061C0F1C201C291C53
:10E7C00002F0ACFC7E4A7F4B01F022FD221C2B1C88
:10E7D00002F0A4FC7C4A7D4B01F01AFD221C2B1C8C
:10E7E00002F09CFC7A4A7B4B01F012FD221C2B1C90
:10E7F00002F094FC784A794B01F00AFD221C2B1C94
:10E8000002F08CFC764A774B01F002FD021C0B1CD7
:10E81000301C391C02F082FC029A039B041C0D1C64
:10E820000098019901F0F4FC069A079B02F076FC2F
:10E83000221C2B1C01F0ECFC061C0F1C00980199FB
:10E84000021C0B1C02F06AFC674A684B0A900B9191
:10E8500001F0DEFC321C3B1C01F0DAFC00240D1C34
:10E86000221C009801992B1C02F058FC221C2B1C26
:10E87000009001910698079902F050FC5A4A5B4BB0
:10E8800006900791201C291C02F0D8FE0A9A0B9BC7
:10E8900002F0D4FE021C0B1C301C391C02F0CEFE10
:10E8A000029A039B02F03AFC021C0B1C0698079983
:10E8B00001F0AEFC061C0F1C321C3B1C0098019999
:10E8C00001F0A6FC4A4A4B4B0024201C0D1C02F010
:10E8D00025FC494A494B06900791201C291C02F04F
:10E8E0001DFC009A019B02900391201C291C02F040
:10E8F000A5FE021C0B1C301C391C02F09FFE404A76
:10E90000404B02F00BFC021C0B1C0298039901F017
:10E910007FFC464B43441A685B6801F079FC061C97
:10E9200050460F1C03F0B4F90D1C4149041C41442E
:10E930000A684B680698079902920393321C3B1CA5
:10E9400001F066FC029A039B01F062FC221C2B1C66
:10E9500001F05EFC00220B1C00920193101C2B1C8A
:10E96000221C02F06BFE029A039B02F067FE069ADD
:10E97000079B02F063FE021C0B1C301C391C02F0CA
:10E980005DFE02900391089B049C013B234300D051
:10E99000C2E11D481D49049005914BE0C046C046A8
:10E9A0000000000000004043000000000000F03FB5
:10E9B0000000000000000000EF4E454A287ECA3FDC
:10E9C00065DBC9934A86CD3F01411DA96074D13FE3
:10E9D0004D268F515555D53FFFAB6FDBB66DDB3FF5
:10E9E000033333333333E33F0000000000000840BB
:10E9F000000000E009C7EE3FF5015B14E02F3EBECA
:10EA0000FD033ADC09C7EE3F000000000000F0BF44
:10EA1000FFFF0F0001FCFFFF0000F03F8E98030096
:10EA200079B60B000000F0FFF02B0200E02B020093
:10EA3000D02B02000026321C4B465846494602F0B5
:10EA4000FDFD009A019B02F069FB029A039B041CE6
:10EA50000D1C5846494602F061FB021C0B1C201C91
:10EA6000291C01F0D5FB009A019B02900391301CF8
:10EA7000494602F053FB00900191009A019B0298D5
:10EA8000039901F0C5FBCC4B041C0D1C0F1C8846E0
:10EA9000994200DC19E1C94A8B18034300D012E205
:10EAA000AC4BAB4A0298039901F0B2FB009A019B70
:10EAB00008900991201C291C02F0C0FD021C0B1CAF
:10EAC0000898099900F07CFDA946002800D0FAE1D9
:10EAD0004A46BB4B802411156403C918201C084109
:10EAE000C11948009C4A9D4B0B1C0903B54E090BEC
:10EAF000400D0C43B4498519B44E081A04412E4107
:10EB00004046B343A146002800DA1EE2009801996E
:10EB100002F094FD00900191009A019B02980399E4
:10EB200001F076FB4A46120590460024201C8C4AD0
:10EB30008C4B0D1C0F1C02F0F1FA009A019B0890FF
:10EB40000991201C291C02F079FD021C0B1C029863
:10EB5000039902F073FD844A844B02F0DFFA844A81
:10EB6000844B261C0D1C041C391C301C02F0D6FAE8
:10EB7000021C0B1C201C291C01F04AFB041C0D1C50
:10EB8000221C2B1C0898099901F042FB089A099B4A
:10EB9000061C0F1C02F052FD021C0B1C201C291C21
:10EBA00002F04CFD321C009001913B1C301C391CC2
:10EBB00002F0B4FA704A714B041C0D1C02F0AEFA5C
:10EBC0006F4A704B02F03AFD221C2B1C02F0A6FA91
:10EBD0006D4A6E4B01F01CFB221C2B1C02F09EFAAE
:10EBE0006B4A6C4B02F02AFD221C2B1C02F096FA99
:10EBF000694A6A4B01F00CFB221C2B1C02F08EFAB6
:10EC0000021C0B1C301C391C02F018FD041C0D1CCE
:10EC1000221C2B1C301C391C02F080FA604A614B0C
:10EC200002900391201C291C02F008FD021C0B1C01
:10EC30000298039901F008FE009A019B041C0D1C28
:10EC4000301C391C02F06AFA009A019B01F0E0FACC
:10EC5000021C0B1C201C291C02F0F0FC321C3B1C6B
:10EC600002F0ECFC0B1C021C4F48504902F0E6FC81
:10EC7000464673181C15002C00DC60E1021C049849
:10EC8000059902F04BFA061C0D1CFFF74AFC029C8A
:10EC9000002C00DA75E400260025FFF742FC4C4802
:10ECA000089C031C4344234300D01AE106986146A4
:10ECB000069A6346C3E4291C2B1C0098009A02F0B4
:10ECC0002DFA061C0D1CFFF72CFC4B005B08994627
:10ECD000404B994500DC25E13F480B1823430DD1FB
:10ECE000009A019B201C02F0A9FC021C0B1C02983C
:10ECF000039900F05BFC002800D1E9E62C4A2D4B7B
:10ED00000498059902F00AFA294A2A4B02F006FAF9
:10ED1000061C0D1CFFF705FC2349244A04910592AB
:10ED200088E6029E002EB6DA80200006051C5E46AC
:10ED30004D44FFF7F6FB069A63461B481B4901F05A
:10ED400083FD06908C46FFF732FCC046C046C046A5
:10ED5000FE822B654715973C000000000000000074
:10ED600000000000432EE63FEF39FAFE422EE63F58
:10ED7000396CA80C615C20BED0A4BE726937663EB7
:10ED8000F16BD2C541BDBB3E2CDE25AF6A56113FAB
:10ED900093BDBE166CC1663F3E5555555555C53F92
:10EDA0000000000000000040000000000000F03FF4
:10EDB00059F3F8C21F6EA501FFFF8F40000070BF1E
:10EDC00002FCFFFF01FCFFFF13040000FFFF0F0028
:10EDD000000010C0FFCB904000346F3F6C4B984553
:10EDE00000DC54E76B4B984501DDFFF7C6FB61463D
:10EDF000584B574A069802F021FC574A574B041CBF
:10EE00000D1C02F08BF9564A564B061C0F1C201C99
:10EE1000291C02F083F9221C009001912B1C201C5C
:10EE2000291C02F07BF9504A504B02900391201CA0
:10EE3000291C02F073F9021C0B1C4D484D4902F0CD
:10EE4000FDFB221C2B1C02F069F9021C0B1C4A481A
:10EE50004A4902F0F3FB021C0B1C0298039902F0D2
:10EE60005DF9474A474B02F059F9021C0B1C009808
:10EE7000019902F0E3FB041C0D1C221C2B1C301C0E
:10EE8000391C01F0C5F900220B1C00920193101CE3
:10EE90003B1C321C02F0D2FB021C0B1C201C291C48
:10EEA00002F0CCFB029003916DE500240021FFF7F6
:10EEB00011FC2B1C27492648009A01F0C5FC061CB2
:10EEC0000D1CFFF72EFB304A304B0498059902F0D9
:10EED00025F92D4A2D4B02F021F9061C0D1CFFF7D8
:10EEE00020FB089E012E01D0FFF765FB8020000665
:10EEF000051C069E6544FFF714FB002801D0FFF7B0
:10EF00001FFB6346C91A221C0A41101C8840A042FC
:10EF100001D0FFF7E5FA01231A4002239B1A089358
:10EF2000FFF7DEFA1C4B994500DDD1E5002398463A
:10EF30009946FAE58024E4020121FFF7CBFB4A461B
:10EF400000F0D6F9021C0B1C99E66442A146DDE5EF
:10EF5000000000000000F03F000000604715F73F90
:10EF600044DF5DF80BAE543E000000000000D03FCF
:10EF7000555555555555D53F000000000000E03F60
:10EF8000FE822B654715F73F9C7500883CE4377E71
:10EF9000FEFFEF3F0000F03F0000E03FC046C046EC
:10EFA000F0B55F4656464D464446F0B46C4E0D1CD7
:10EFB000371C83B0041C021C0B1C2F40B74200D12D
:10EFC000ADE0002900DC8BE02F1500D194E0654D09
:10EFD00009038023090B5B037F190B43FE0700D550
:10EFE00070E07F10C20FB8465B00002780219B189D
:10EFF0001624420000970020890345189D4204DC36
:10F0000068185B1B009D6D180095D50F5B00013CD7
:10F010005B1952004908002CEFD180210026090617
:10F0200020250196B446894609E0834246D0D40F94
:10F030005B00013D1B1952004908002D1CD066469B
:10F040008C198342F1DD6718E60FBC46F60782464D
:10F050004E452CD01B1AA24280414042019F1B1AF0
:10F06000121B7F18D40F5B00013D019750461B19FE
:10F0700052004908002DE2D1134328D101984308DA
:10F08000009D394E6A109219ED0702D580210906BC
:10F090000B4340460705B9181C1C0D1C201C291CDD
:10F0A00003B03CBC90469946A246AB46F0BDFF0F6C
:10F0B000FF077E427E41B2468244CBE79442C2D9EA
:10F0C000181CB4E7C20F5B009B18400089E7019948
:10F0D00001312FD0019C012323401B195B08CFE78E
:10F0E0006B005B081A43D9D0002700292BD1C10A35
:10F0F000153F40050029FAD08022520311421ED14B
:10F100000023490001331142FBD001242022E41ADC
:10F11000D21A3F19041CD4402143984057E7201CC1
:10F12000291C01F0FBFF221C2B1C01F071F8041CB0
:10F130000D1CB3E7009A002301320092A0E72022C1
:10F1400001240023E5E7221C2B1C201C291C02F0B3
:10F1500075FA021C0B1C01F077FB041C0D1C9DE7CB
:10F160000000F07F01FCFFFF0000E03F4B0059086A
:10F170007047C0464800024B4008C018C00F704797
:10F180000000108000207047024901487047C046C7
:10F19000000000000000F87FF0B546464F46C0B4BE
:10F1A000CA0F90464B004D4A5B0D9E1883B0041C5D
:10F1B0000D1C8C46071C132E3BDC002E5CDB484FDD
:10F1C000021C37413B1C0B400343994648460B1C2D
:10F1D000002827D07B081A1C0A4022430027002A57
:10F1E0000AD0132E00D176E0291C80229943D20246
:10F1F0000B1C324113439C464046C10039486346CC
:10F2000041180C684D683A1C201C291C01F000F8BC
:10F210000090019100980199221C2B1C02F00EFA1B
:10F22000021C0B1C101C191C03B00CBC9046994608
:10F23000F0BD332E0BDD0B1C8021021CC9008E4259
:10F24000F0D1291C00F0E4FF021C0B1CEAE7264A5F
:10F250000126D2187642D64091460B1C021C06426B
:10F26000E0D076080642C7D08023B443DB05484689
:10F270000341271C1F43BFE74E0076080643021CCC
:10F280000B1C002ECED00903090B01434842014359
:10F2900080200003090B0140680C40040B1C034351
:10F2A0004046C1000F4841180C684D68291C201CBD
:10F2B00000F0AEFF00900191009801992B1C221CD8
:10F2C00002F0BCF90D1C4146021CC8076900490840
:10F2D000031C0B43A6E780273F0685E701FCFFFFE1
:10F2E000FFFF0F00082C0200EDFBFFFF00000000F5
:10F2F000F8B53D4E171C331C0B40041C0D1C0A1C9A
:10F300001B1525D14B005B0818431ED0201C291C5F
:10F310002E4B2D4A01F002FF344B041C0D1C9F4262
:10F3200031DB0E4033150A1C363B3149DB198B4269
:10F3300015DD221C2B1C2648264900F061F8244AC2
:10F34000244B01F0EBFE041C0D1C291C201CF8BDF5
:10F3500028498B421ED02649DB198B42E9DC002B61
:10F3600005DD25491B050A401D1C1543EDE7191C49
:10F37000353118DA214B9F42DBDC17481749221C34
:10F380002B1C00F03DF8144A144B01F0C7FE041C7E
:10F390000D1CDAE7201C291C221C2B1C00F038FF56
:10F3A000041C0D1CD1E7144936331B050A401D1CF3
:10F3B0001543201C291C0A4A0A4B01F0AFFE041C0D
:10F3C0000D1CC2E7C046C0460000000000005043CC
:10F3D0009C7500883CE4377E59F3F8C21F6EA50186
:10F3E000000000000000903C0000F07FB03CFFFFF8
:10F3F000FE070000FF070000FFFF0F8050C3000062
:10F4000030B5DA0FD2074B005B08111C194330BD31
:10F41000014B18687047C04670280020084B10B593
:10F42000041C002B02D0002100E000BF054B18682F
:10F43000836A002B00D09847201CFDF78FFFC04641
:10F4400000000000782C020070B50E4B0E4D002419
:10F45000ED1AAD101E1CAC4204D0A300F35898471F
:10F460000134F8E703F042F8084B094D0024ED1A87
:10F47000AD101E1CAC4204D0A300F35898470134D1
:10F48000F8E770BD7428002074280020742800203C
:10F490007C28002010B50023934203D0CC5CC454D8
:10F4A0000133F9E710BD031C8218934202D0197092
:10F4B0000133FAE77047000002B471464908490079
:10F4C000095C49008E4402BC7047C046002934D014
:10F4D0000123002210B488422CD301242407A14226
:10F4E00004D2814202D209011B01F8E7E400A142E3
:10F4F00004D2814202D249005B00F8E7884201D37E
:10F50000401A1A434C08A04202D3001B5C08224355
:10F510008C08A04202D3001B9C082243CC08A042C6
:10F5200002D3001BDC082243002803D01B0901D0B2
:10F530000909E3E7101C10BC7047002801D0002027
:10F54000C04307B4024802A14018029003BDC04660
:10F55000190000000029F0D003B5FFF7B9FF0EBC79
:10F560004243891A1847C0467047C0468446101C5B
:10F5700062468C46191C634600E0C0461FB501F088
:10F580004FFD002801D40021C8421FBD10B501F075
:10F590007FFC4042013010BD10B501F041FD002854
:10F5A00001DB002010BD012010BDC04610B501F0E8
:10F5B00037FD002801DD002010BD012010BDC04630
:10F5C00010B501F0AFFC002801DC002010BD0120C7
:10F5D00010BDC04610B501F0A5FC002801DA0020DE
:10F5E00010BD012010BDC0468446081C6146FFE7DF
:10F5F0001FB500F05BFA002801D40021C8421FBDEE
:10F6000010B500F0E1F94042013010BD10B500F036
:10F610004DFA002801DB002010BD012010BDC046BE
:10F6200010B500F043FA002801DD002010BD0120D4
:10F6300010BDC04610B500F0F1F9002801DC002033
:10F6400010BD012010BDC04610B500F0E7F900283C
:10F6500001DA002010BD012010BDC046002B11D1E1
:10F66000002A0FD1002900D1002802D00021C9436F
:10F67000081C07B4024802A14018029003BDC0460E
:10F68000E9FEFFFF03B4684601B5029800F05CF89C
:10F69000019B9E4602B00CBC7047C0469C460304CA
:10F6A000F0B51B0C17043F0C150C1E1C041C000CA1
:10F6B0007E436B4347434543FB18300C1818874281
:10F6C00002D980235B02ED18030CED1863465C43FE
:10F6D0004A433604360CA118000480194919F0BDBC
:10F6E0009E2110B5C905041CFFF7AEFF002803D109
:10F6F000201C00F0C1FC10BD9E21C905201C00F09B
:10F700004BFB00F0B9FC80231B06C018F3E7C04692
:10F71000F0B583B0161C1F1C0090019102F048FB4D
:10F72000041C0D1C221C2B1C301C391CFFF7B6FFBF
:10F73000009A019B121A8B410899201C0A604B60A9
:10F74000291C03B0F0BDC046F0B583B0141C1D1CCD
:10F750000090019102F008FD221C2B1C061C0F1CBE
:10F76000FFF79CFF009A019B121A8B410899301CED
:10F770000A604B60391C03B0F0BDC046F0B55F466F
:10F7800056464D464446F0B446024500C00F85B08B
:10F790000F1C760A2D0E804641D0FF2D26D08024E6
:10F7A000240400212643F6007F3D89468B46F90F4D
:10F7B0007C027800640A000E00918A463CD0FF2843
:10F7C00034D080231B041C430023E4007F380193C2
:10F7D000009F4346019A7B4049469C4611430F29AE
:10F7E00000D971E0764F89007F58BF46002E3ED188
:10F7F0000822022391469B46D9E75A46341CC2464A
:10F8000001920199022937D0032900D1CFE00129C3
:10F8100000D0ABE053460B400022002632E0002E21
:10F8200019D10421012289469346C0E7221C531EA8
:10F830009A4102320192CBE701270197002CC7D0F1
:10F84000201C02F097FA431F9C4076235B42002164
:10F85000181A0191BCE7301C02F08CFA7625431F80
:10F860009E406D4200232D1A99469B469FE70C232C
:10F87000032199468B469AE7D446012367463B40CD
:10F88000FF2200267602D205700ADB0710431843D8
:10F8900005B03CBC90469946A246AB46F0BD8026DA
:10F8A0000023F603FF22EDE700220026EAE780208E
:10F8B000C00306423BD0044239D1061C26437602DF
:10F8C000760A009BFF22DDE7281A03907601640187
:10F8D000A64239D3361B1A2201230120311C5B00BA
:10F8E0007600002901DBB44201D8361B0343013AFC
:10F8F000002AF3DC741EA641341C1C43039A7F3299
:10F90000002A27DD630704D00F232340042B00D0F7
:10F910000434270103D52B4B039A1C408032FE2A66
:10F920000BDD012361460B40FF220026AAE70643B8
:10F930007602760A4346FF22A4E7A4010123674624
:10F94000660AD2B23B409DE7039F1B22013F03970B
:10F950000023C2E77E23039F5B42DB1B1B2B07DDDB
:10F96000012361460B40002200268BE7D446C5E701
:10F97000221CDA40039B9E339C40231C5C1EA34147
:10F9800013435A0704D00F221A40042A00D004332C
:10F990005F0105D5012361460B400122002671E776
:10F9A0009E01624601231340760A00226AE7802600
:10F9B000F60326437602760A5346FF2262E7C046E4
:10F9C0007C2C0200FFFFFFF74A02430270B55C0A7D
:10F9D000550A43004A001B0EC60F120EC90FFF2B1B
:10F9E00005D0FF2A08D0012093420BD070BD012022
:10F9F000002CFBD1FF2AF6D10120002DF6D10120E9
:10FA00009342F3D1AC42F1D18E4205D0002BEDD11F
:10FA1000201C441EA041E9E70020E7E74A02430218
:10FA2000F0B55C0A550A43004A001B0EC60F120EC1
:10FA3000C90FFF2B31D0FF2A34D0002B16D16042E2
:10FA400060418446002A14D0002820D18E4217D16C
:10FA5000934215DC04DBAC4212D80020AC4212D237
:10FA6000704270414042012318430CE0002AEDD15E
:10FA700094466F426F416046002805D1002FE5D0C3
:10FA8000704201231843F0BD0020002FFBD14842F3
:10FA90004841404201231843F5E7002CCBD0022017
:10FAA0004042F0E7002DC8D0F9E7C0464A024302C1
:10FAB000F0B55C0A550A43004A001B0EC60F120E31
:10FAC000C90FFF2B27D0FF2A29D0002B10D0002AE6
:10FAD00015D194466F426F416046002815D0002032
:10FAE000002F04D148424841404201231843F0BD51
:10FAF000604260418446002AECD00028F2D18E4258
:10FB000011D0704201231843F1E7002FF7D0704263
:10FB100001231843EBE70220002CE8D1D3E70220B1
:10FB2000002DE4D1D1E79342EBDC04DBAC42E8D812
:10FB30000020AC42DBD270427041404201231843A6
:10FB4000D5E7C046F0B55F4656464D464446F0B44C
:10FB50004402460083B00F1C640A360EC50F002E07
:10FB600041D0FF2E22D080231B0400201C43E40040
:10FB70007F3E82468046391C4B007F02C90F7F0AB8
:10FB80001B0E8B463BD0FF2B34D080221204174330
:10FB9000FF007F3B00215A466A40019252460A43C9
:10FBA0000F2A63D87A48920082589746002C3FD19A
:10FBB0000822022392469846DDE701954046022836
:10FBC0002AD1019A01251540FF2300246402DB0598
:10FBD000600AED071843284303B03CBC90469946A1
:10FBE000A246AB46F0BD002C27D10420012282465C
:10FBF0009046C0E7391C4A1E91410231CBE70121F2
:10FC0000002FC8D0381C02F0B5F8431F9F40762360
:10FC10005B421B1A0021BEE7032800D1AEE0012899
:10FC20004FD1019842461040C5B200230024CDE7D1
:10FC30000C2303209A4680469DE7201C02F09AF888
:10FC40007626431F9C4076420023361A9A469846F1
:10FC500091E780240025E403FF23B7E75B463C1CC3
:10FC600001938846AAE73C1C8846A7E7250C240494
:10FC70003A0C240C3F04F6183F0C211C231C79433A
:10FC800053436F435543FB180A0C9B18B1469F42E0
:10FC900002D980225202AD1809041A04090C521824
:10FCA00094011B0C611E8C41920EED181443AD01A2
:10FCB0002C43230105D5012263080120144081440F
:10FCC0001C434B467F33002B2DDD600704D00F22F1
:10FCD0002240042A00D00434220103D52D4B1C40BD
:10FCE0004B468033FE2B17DD019B01251D40002470
:10FCF000FF236BE78020C003044208D0074206D1EF
:10FD0000041C3C436402640A5D46FF235EE704432F
:10FD10006402640AFF2359E70198A4010125640ADB
:10FD2000DBB2054052E77E235B424A469B1A1B2BFF
:10FD300005DD019B01251D400024002346E7221C10
:10FD4000DA404B469E339C40231C5C1EA341134368
:10FD5000580704D00F221A40042A00D004335A0155
:10FD600005D5019B01251D40002401232EE70198A4
:10FD70009C010125640A0540002327E78027FF0333
:10FD8000019B3C43640201251D40640AFF231DE7DB
:10FD9000BC2C0200FFFFFFF7F8B5C20F430244007E
:10FDA0004D024800240E161C9B09000EC90FAD0918
:10FDB000FF2800D17EE0012779408A4258D0221ADC
:10FDC000002A00DC89E000281BD1002D00D075E05E
:10FDD000580704D00F221A40042A00D004335901D6
:10FDE00038D50134FF2C00D183E09B0101225B0A4E
:10FDF000E0B232405B02C405580AD20720431043E8
:10FE0000F8BDFF2CE4D08021C9040D431B2A00DD7E
:10FE10002DE1291C2020D140821A95406A1E95416F
:10FE20000D435B1B5801D3D59B019F09381C01F082
:10FE3000A1FF421F9740944260DC141B1F231B1B31
:10FE40003A1C9F40611C3B1CCA405F1EBB411343D0
:10FE50000024BDE70122DB08E0B23240FF2C04D1D0
:10FE6000002B7ED08021C9030B435B025B0AC1E7F4
:10FE7000211A002946DD002826D0FF2CA8D080209A
:10FE8000C00405431B2900DDEFE0281C2027C840E3
:10FE9000791A8D40691E8D4105435B19590197D52B
:10FEA0000134FF2C5CD0734901221A400B405B08DF
:10FEB00013438DE7002D00D07FE77CE7013A002A4D
:10FEC000AFD0FF2CA2D183E7002D00D180E701390C
:10FED0000029E2D0FF2CD5D17AE7002A1ED1621C7E
:10FEE000D2B2012A4EDD5F1B7A0126D5EF1A0E1C15
:10FEF0009CE701223240FF2000237BE75D4BA41AE0
:10FF00003B4065E7002946D1611CC8B201282ADDC3
:10FF1000FF2925D0EB185B080C1C59E7002C13D0E7
:10FF2000FF2818D08024E404524223431B2A4DDDCD
:10FF30000123EB1A041C0E1C74E7002F00D075E798
:10FF400000220020002390E7002B3BD0D243002A60
:10FF5000EFD0FF28EAD12B1CFF240E1C38E700222B
:10FF6000FF20002346E7002C5AD1002B77D0002D2C
:10FF700000D12DE75B19580100D429E73D4A01243F
:10FF8000134025E7002C15D1002B2FD1002DD7D001
:10FF90002B1C0E1C1CE7002C21D1002B53D0C94375
:10FFA000002904D0FF284BD01B294FDD01235B190A
:10FFB000041C73E7002B22D1002DD0D02B1C0E1C6B
:10FFC000FF2405E72B1C041C0E1C01E71C1C20262B
:10FFD000D440B21A93405A1E93412343A9E7FF2805
:10FFE0002ED08024E40449422343DDE7002D00D1D4
:10FFF000EEE65A1B500134D5EB1A0E1CE8E6FF243E
:020000022000DC
:10000000002D00D1E4E68022DB08D203134204D0A5
:10001000ED08154201D12B1C0E1CDB00FF24D7E696
:10002000002B0DD0FF24002D00D1D1E68022DB086B
:10003000D2031342F1D0ED081542EED12B1CECE7B0
:100040002B1CFF24C4E62B1C041CC1E61C1C20270F
:10005000CC40791A8B40591E8B412343A7E72B1CB8
:10006000B6E6131E00D0B3E66AE7012515E70125C1
:10007000D7E6C046FFFFFFFB4302590A4300C20F09
:100080001B0E00207E2B0DDD9D2B0CDC8020000440
:100090000143952B0ADC9620C31AD9404842002A16
:1000A00000D1081C7047034BD018FBE7963B9940E2
:1000B000F4E7C046FFFFFF7F70B5041E3CD0C60FBB
:1000C00000D04442201C01F055FE9E23251C1B1A23
:1000D000962B0CDC083884406402640ADBB2321CC4
:1000E0006402DB05600AD2071843104370BD992BE8
:1000F0000ADD0522121A211CD1400A1C011C1B31E9
:100100008D40691E8D411543052801DD421F954034
:10011000164C2C406A0704D00F221540042D00D045
:10012000043461010CD59F23181AFF281AD0A401AA
:10013000640AC3B2321CD3E7002200230024CFE7B5
:10014000E408FF2B04D06402640ADBB2321CC7E768
:10015000002C04D08020C00304436402640A321CD3
:10016000FF23BDE7321CFF230024B9E7FFFFFFFB9D
:1001700010B5041E33D001F0FDFD9E231B1A962BF3
:1001800009DC083884406402640ADBB26402DB05DF
:10019000600A184310BD992B0ADD0522121A211C92
:1001A000D1400A1C011C1B318C40611E8C41144340
:1001B000052801DD421F9440144A2240610704D003
:1001C0000F210C40042C00D0043251010AD59F238A
:1001D000181AFF2816D09401640AC3B2D6E7002388
:1001E0000024D3E7D208FF2B03D05402640ADBB209
:1001F000CCE7002A06D08024E40314436402640A96
:10020000FF23C3E7FF230024C0E7C046FFFFFFFB37
:10021000F8B55F46564644464D46F0B40C034D00D3
:10022000CE0F610A440F2143C400180380465800D2
:10023000400D8246D80F84464046400A530F034380
:10024000D0006D0D371C83465246664500D19DE0B7
:10025000AF1A002F00DC03E1002A38D1184300D088
:10026000E4E0630709D00F232340042B05D0231DAE
:10027000A342A441644209191C1C080200D478E07E
:10028000CE4B6A1C9A4200D105E1CD4BE4081940DF
:1002900048075205490204430B0B520D371C00203E
:1002A00000211B03201C1C0B0B0D1B05C54D2343FC
:1002B000520552081D4015436D006D08FF07291CAB
:1002C00039433CBC90469946A246AB46F8BDBB4874
:1002D0008542C6D0802000040343382F00DDECE0C7
:1002E0001F2F00DD20E12020C01B1A1C8146824008
:1002F0005846F8400243944658464A469040421EAB
:100300009041FB40624602431F1CA21A9442A44142
:100310006442C91B091B141C0B02A2D549024F0AD7
:10032000002F00D1C4E0381C01F024FD021C083A63
:100330001F2A00DDB7E02821091A201C9740C84079
:1003400007439440954200DDA9E0551B691C1F2915
:1003500000DDD8E01F22551B3B1C221CAB40CA40CD
:10036000AC40651EAC411343CF401C43391C0025F3
:1003700077E74807E4086A05C908520D371C0443AB
:100380008E4B9D4248D009030B0B88E7AA1A94466E
:10039000002A00DC98E05046002853D08748854268
:1003A00000D15EE78020000403436246382A00DD66
:1003B000FDE01F2A00DD4BE120226046101A1A1CC6
:1003C00082408246914658466246D0404A460243A1
:1003D0009046584652469040421E90414246024343
:1003E0006046C3401219A242A44164425918091937
:1003F000141C080200D434E7704B01359D4200D133
:1004000024E16F4B60081940012323401C1C044366
:10041000CB071C43490824E70B1C234300D1C7E149
:1004200080231B030B431B031B0B38E7013F002FEB
:1004300064D15846221A9442A4416442C91A091B45
:10044000141C69E75846184300D10AE701225242BA
:1004500094446046002800D0C5E058460219C2E71F
:10046000002F72D1681C4005400D012800DCDEE041
:100470005A46A21A9442BF41C81A7F42C71B38028B
:1004800000D488E05A46141BA3459241591A52429F
:100490008F1A664644E7371C00230024FFE64849CC
:1004A000AD1A3940DDE6271C28388740002449E78B
:1004B000201C01F05FFC203038E75A461A43531ED7
:1004C0009A41D2B2002720E7002A00D0DDE0681C64
:1004D0004205520D012A00DC8EE0384DA84200D1C1
:1004E000B3E05D462A19A242A44164425918091991
:1004F000CC07520814434908051CB2E62F48854230
:1005000000D0EAE6ADE62B1C1F3B3A1CDA40131C78
:1005100020296DD03F22551BAF403C43601E8441D3
:100520001C43002100259CE6381C20381A1CC240C0
:10053000101C202F5ED04022D71BBB405A461A43C6
:10054000531E9A4102430027DFE6002D3CD01B4D8D
:10055000AA4500D194E080252D047F422943382FFD
:1005600000DDADE01F2F00DD2CE12025ED1B081C78
:10057000261CA840FE40AC400643651EAC413443F7
:10058000F9405D462C1BA34592415B1A5242991AD1
:1005900055466646C0E6131C3B43141C002B00D096
:1005A000BEE600270022002500210024E8E65A4686
:1005B0001A43531E9A41D2B2002313E7FF070000EB
:1005C000FFFF7FFFFFFF0F800D1C254358D0FF4327
:1005D000002F51D1041BA3459241591A5242891A46
:1005E0005546664698E69648854200D0DDE638E6F0
:1005F000002792E70023A1E7081C2043002D00D02C
:10060000C0E0002800D1FBE05846184300D128E69E
:1006100058460219A242A441644259180919141CEF
:100620000A0200D41DE6874B0125194019E6081C73
:100630002043002D39D100286DD15946194300D1EE
:10064000BDE0191C5C4666460BE6051C2A1CABE7A0
:10065000604620381A1CC24060469146202800D1CE
:10066000ABE04022121A93405A461A43531E9A4155
:100670004B461A430023B5E6714DAA4500D06EE7FC
:10068000191C5C4655466646EBE5002D1ED10D1C37
:10069000254373D0D543002D6DD15C445C45924118
:1006A0005918524289185546A3E6002849D159469F
:1006B000194300D196E0191C5C466646604DD0E5B2
:1006C0000C43611E8C41E4B200215AE75C4DAA45FF
:1006D00054D05542802210040143382D00DD85E0BE
:1006E0001F2D00DD95E02022501B0A1C844682400D
:1006F000201CE8400243904662469440601E8441BC
:1007000042461443E9405C445C459241CB18524256
:10071000991855466DE65846184300D1A1E558464C
:10072000271ABC429241C81A5242801A02026AD564
:100730005846041BA3459241591A5242891A6646EB
:100740008FE55846184336D04807E4080443802014
:10075000C9080003014208D0DD08054205D1594609
:10076000CA085C071443291C6646630FC900194375
:10077000E400334D75E5324A9245AED1191C5C4612
:1007800055466EE5002837D05846184313D08025CB
:100790004807E408C9082D0304432942E5D0D808D6
:1007A0002842E2D15D46EA085C071443011CDCE7FD
:1007B0000023002473E5224D53E5002354E700276E
:1007C0000022F1E63D1C203D0A1CEA40151C202FAA
:1007D00031D04026F71BB9400C43611E8C412C439D
:1007E0000021CEE6164A0027151CDDE60C43611EEB
:1007F0008C41E4B2002186E7191C5C46104D30E5BF
:10080000191C5C462DE5031C3B43D8D0011C3C1C45
:1008100027E52020404240190A1CC2409046202D66
:100820000BD04020451BA9400C43611E8C4145461E
:100830002C43002167E70021CEE70021F4E7C04602
:10084000FF070000FFFF7FFFF0B5564644465F46B6
:100850004D46F0B41F1C0B031B0B98464B0087B092
:10086000041C81465B0DC80F161C9A460090002B95
:1008700051D06A4B9A4531D08022414652030A43F7
:10088000630FD2001A43664B90460025E200914662
:100890009A44002402953B031B0B9B46FD0F7B00F3
:1008A000311C5B0D019560D05C4A934254D080218D
:1008B000584649030143720FC9001143584A8B46F9
:1008C0009B18F1000020009A04436A4003920F2C09
:1008D00000D9ADE0534EA4003459A7464046044326
:1008E0006ED1002102250824884689460295D2E768
:1008F000009C0298C34649460194022864D003280C
:1009000000D1ABE2012800D038E2019A0024024075
:100910000025A14660E0434623434AD040460028D4
:1009200000D1C0E101F026FA031E272B00DDB3E160
:1009300028210D1A211C083B4246E9409A400D1C13
:100940001543221C9A40A8469146374B00251B1A96
:100950009A46002402959EE75A4616430320002E2D
:10096000B1D1B34600210220ADE75A4632431BD035
:100970005B46002B00D18AE1584601F0FBF927289D
:1009800000DD7DE12822171A011C321C08395B4664
:10099000FA408B40171C1F43331C8B40BB46191C6D
:1009A000214B1B1A00208EE70027BB4600210120A7
:1009B00089E70020012504248046814602956AE7E4
:1009C00003250C24029566E7019C0394039D0122F4
:1009D0002A400024114DA146002000212403260BAB
:1009E0000C0D2405114B34432D0523402B435B0094
:1009F0005B08D207191C4846114307B03CBC90461F
:100A00009946A246AB46F0BD0022802424039146BD
:100A1000024DE1E700240025A146DDE7FF070000C5
:100A200001FCFFFFFC2C02000DFCFFFFFFFF0F800D
:100A30005546ED1A0495D84500D953E100D14EE151
:100A4000049C0025013C4E4604944746A94658465E
:100A500003020C0E1C430902250C23041B0C0091FD
:100A6000381C291C0193FEF731FD0199834641434F
:100A7000381C8A46291CFEF76DFD330C0904194306
:100A80008A450CD95B460919013B8C4200D947E1E4
:100A90008A4500D844E10222524293440919534640
:100AA000CB1A181C291C9846FEF710FD071C01984C
:100AB000291C784382464046FEF74CFD36040B0461
:100AC000360C33439A4509D91B197A1E9C4200D92A
:100AD00024E19A4500D821E1023F1B195E46320409
:100AE0001743380CBB46009E009F51463F0C320412
:100AF0005B1A5946BA46120C0F043F0C90465146F9
:100B00007A434F434146414356467043CF19160C32
:100B1000BE19B14202D980277F02C019310C1204DC
:100B20003604120C4018B618834200D2C4E000D13B
:100B3000BEE0191A4846861BB145BF417F42CF1B14
:100B4000A74200D113E1291C381CFEF7BFFC019914
:100B500002904143381C8946291CFEF7FBFC330CEC
:100B60000904194389450CD9029B0919013B8C42A0
:100B700000D9FFE0894500D8FCE0029F0919023F37
:100B800002974F46CF1B381C291C0597FEF79EFC89
:100B9000071C0198291C784381460598FEF7DAFC6A
:100BA00036040904360C0E43B14509D936197B1EAB
:100BB000B44200D9E0E0B14500D8DDE0023F36198B
:100BC000029D4946761A290439430B0457460A0CFC
:100BD0001B0C40464546584355437B437A43EB182C
:100BE000070CDB199D4202D980256D0252191D0C9C
:100BF00000041B04000C52191B18964235D300D177
:100C0000FCE001231943049E994FF519002D00DCE7
:100C1000A1E0480709D00F230B40042B05D00B1D82
:100C20008B42894149428B44191C5A46D20107D54F
:100C3000904B5C46049E80271C40FF00A346F5199C
:100C40008D4B9D427ADD039C0122224000248B4D76
:100C5000A146C1E680242403474627424CD13C43A9
:100C60002403240B009A854DB6E63619481EB4427B
:100C70005ED9011C9642C4D1009E9E42C1D1C2E7FA
:100C8000031C283B311C99408B46002188E6301C10
:100C900001F070F8203072E6283B211C99400022B8
:100CA0008846914651E6201C01F064F820303BE66E
:100CB0000021B14500D33DE7009F5A46B944B945EC
:100CC000BF417F423F19FB18013A9C421ED2984215
:100CD00000D97EE000D1B5E0191A93462AE789458C
:100CE00000D8ADE64846464642467708D307460850
:100CF000C0071E438146AAE65846204212D104434B
:100D000024032A1C240B89465C4D65E6A342E3D1EB
:100D1000009F4F45DBD9211A93460BE7171CDDE6F0
:100D20009B46BCE63C432403240B009A534D53E6F8
:100D3000B24259D800D18AE0011C62E75F46C90877
:100D40007B07039E0B437C026D0501229946240B11
:100D50006D0D324040E64A4B049FDB1B382B10DD03
:100D6000039C0122224000240025A14634E60121F3
:100D7000494248E7029304E71F1C21E7019C0394C2
:100D800041E71F2B40DC3F48049F0C1C3A18584693
:100D90009140DC40904020430A1C511E8A41011CB6
:100DA00011435A46DA40131C480709D00F220A4063
:100DB000042A05D00A1D8A42894149425B18111C48
:100DC0001A0234D5039C0122224000240125A146A9
:100DD00002E6009F02214942B9448B44B94589414A
:100DE00049420919CB18A4E6009D881E6900A94252
:100DF000AD416D422C19361900913AE7002B00D015
:100E000033E70024009437E71F4A049C5D46121B19
:100E1000D5402A1C202B1FD01C4E5F46A3199F4093
:100E20003B1C19434B1E994111430023BCE75A0751
:100E3000C9080A43039F91465B0201221C0B3A40FA
:100E40000025C9E54E45C4D89346002172E6009FAF
:100E50009F42C9D3011C0FE70023E2E7802424034B
:100E60005F463C432403240B019A8946034DB3E5B6
:100E7000FF030000FFFFFFFEFE070000FF0700006A
:100E800002FCFFFF1E040000E2FBFFFF3E04000027
:100E9000F0B55F4656464D464446F0B40D1C041C62
:100EA0008046E80F814618030F03000B3F0B83B009
:100EB00084461B48009749005E00DF0F490D9246AB
:100EC000760DBB4681420CD01548864210D00120D9
:100ED000B14215D003B03CBC90469946A246AB4601
:100EE000F0BD009F01202743F4D10D488642EED18A
:100EF000604602430120002AECD10120B142E9D131
:100F0000009B6345E6D1D045E4D1D94506D0002900
:100F1000E0D11C43201C441EA041DBE70020D9E7A0
:100F2000FF070000F0B55F4656464D464446F0B414
:100F3000CD0FDE0FAC461D032D0BB146374E0F0310
:100F40004C00AB465D0080463F0B640D92466D0D34
:100F5000B44232D0314EB54235D0002C0ED1384398
:100F600041424141081C002D0BD0002919D1CC452C
:100F70002DD0654668420123184318E0002DF6D1B4
:100F8000281C59460A4353425341002806D1002BDE
:100F9000EDD0634658420123184308E00020002B9F
:100FA00005D14A46504250414042012318433CBCBF
:100FB00090469946A246AB46F0BD3E1C0643C9D0BA
:100FC00002204042F3E75E461643C6D0F8E7AC4243
:100FD00007DC0BDA6146484248414042012318438E
:100FE000E5E76646704201231843E0E75F450AD80B
:100FF0000ED000205F45DAD2654668426841404223
:1010000001231843D3E76246504201231843CEE739
:10101000D045F8D80020D045EED3C8E7FF07000040
:10102000F0B556464D4644465F46F0B40D1C83B0BD
:10103000041C0190E80F814618030F03000B3F0BBF
:1010400084463548009749005E00DF0F490D9246FF
:10105000760DB846814234D02F48864236D00029DA
:1010600018D0002E1FD1341C67463A4353425341D7
:10107000002C1FD00020002B05D142465042504189
:1010800040420123184303B03CBC90469946A24617
:10109000AB46F0BD0098044360426041041C002E42
:1010A000E2D00028E9D1C14515D04F46784201234E
:1010B0001843E8E7002BF6D04B465842012318436B
:1010C000E1E7009F02202743DDD1C5E76746022004
:1010D0001743D8D1C3E7B14204DD4A465042012349
:1010E0001843D0E7B14207DB00986045E4D80AD046
:1010F000009F00206745C6D24F4678427841404263
:1011000001231843BFE7019A5245D5D8019A002020
:101110005245F1D3B7E7C046FF070000F0B5564689
:1011200044465F464D46F0B41F1C0B031B0B9A460A
:101130004B0087B0041C80465B0DC80F161C029341
:101140008146002B68D0694B0299994232D08022A7
:10115000534652031A43D200630F1A439246644A1D
:10116000E000891880460291002400253B031B0BF8
:101170009B467800FB0F321C400D039300D175E0B5
:101180005A4B984269D08022594652030A43730F42
:10119000D2001A43564B9346C018F200002303991D
:1011A0004E4671401C430F2C00D9A9E0514EA400BB
:1011B0003459A74653461C4300D087E00025AA4671
:1011C000A84608240225D1E74946022D6CD0032DFC
:1011D00000D117E2012D00D058E10D40EDB20024FE
:1011E000A9460023A0460020002125030A0D1C0566
:1011F0002D0B1205404B2A43134023435B004C4602
:101200005B08E207191C4046114307B03CBC9046FE
:101210009946A246AB46F0BD5346234350D05346B1
:10122000002B00D184E1504600F0A4FD031E272BC3
:1012300000DD76E128210D1A211C083B5246E940C9
:101240009A400D1C1543221C9A40AA4690462B4BEF
:1012500000241B1A0293002588E75B461E430323E4
:10126000002E9CD1B3460022022398E75B4633430D
:1012700021D05846002800D14EE100F07BFD272800
:1012800000DD42E128210F1A021C311C083A5B469E
:10129000F94093400F1C1F43331C9340BB461A1C5C
:1012A000164B181A00237AE701230B4000249946B5
:1012B000A0460E4B97E70027BB46002201236EE7AE
:1012C000002104248A46884601254FE70C24032583
:1012D0004CE700258024A9462403A846034B82E757
:1012E000DA46904603991D1C6FE7C046FF070000D1
:1012F00001FCFFFF3C2D0200FFFF0F800DFCFFFFF4
:10130000029F160C381804904046070C0004000C8D
:101310001204120C031C5343041C3D1C744355431C
:1013200098463B1C73436419A44644460293230C1D
:1013300063449D4204D9029D802464022D190295C4
:101340001D0C039545462C041B04240C1C19059404
:101350005C46230C051C58432404240C8446381C8A
:10136000604365435F438146CC44280C6044BB46E0
:10137000814502D980277F02BB442D04070C2D0C28
:10138000000440195546BC462F04E3448446280C0B
:101390003D0C2F1C5743B8462F1C77434243B94698
:1013A00047463F0C9144BA46D14446434A4502D988
:1013B00080225202B6184F463A0CB6183A044746F5
:1013C0003F043F0CB8462F1C67435D4344435843DA
:1013D00065190190380C2D184244B846AC4204D926
:1013E000019880235B02C0180190039C029F201C7F
:1013F0006044C0196045A44147466442A4462B049A
:101400003C049946240C4C44A046D8448018C2465B
:10141000E24490429241574652429146F219E245C7
:10142000BF417F424B46BC46D845BF41D4187F429E
:1014300063461F432D0C7F19B24292414C45AD418A
:1014400052426D421543019E7D19AB19E20D5B02BC
:10145000059F134342023A439A46531E9A41C30DD5
:10146000101C18436402204380465046C0010DD52D
:10147000454601225646049C6B082A401A43F3074E
:1014800001341A43760804949046B246049E634F92
:10149000F319002B61DD404640070BD00F22444674
:1014A0002240042A06D0424604324245804140424E
:1014B000824490465546ED0107D5594B5646049F48
:1014C00080201E40C000B2463B18564A934200DDC1
:1014D000EAE644465546E2086807104301226C02DA
:1014E0005B050A408046240B5B0D91467BE6DA469D
:1014F00090461D1C69E680242403574627421CD1D0
:101500003C432403240B484B6DE6031C283B311C51
:1015100099408B460022C3E6301C00F02BFC2030A3
:10152000ADE6283B211C994000228A4690468EE673
:10153000201C00F01FFC203078E65846204207D1DE
:10154000044303992403240B89469046364B4AE60C
:101550003C432403240B344B45E6344B049E9B1B35
:10156000382B06DD01230B4000249946A0460023BA
:1015700039E61F2B25DC049C2D4D4646601952464A
:1015800044468640DC4082405746301C2243DF40C0
:10159000441EA04102433B1C540709D00F201040B9
:1015A000042805D0101D9042924152429B18021C03
:1015B0001D021AD501230B4000249946A0460123A1
:1015C00011E61C48049C5546001BC540281C202BD6
:1015D00016D0194E5746A21997403A1C43461A4353
:1015E000531E9A4102430023D6E758075B02D208F4
:1015F0001C0B01230B401043994680460023F2E563
:101600000022EBE7802424035046012304431940C1
:101610002403240B8946044BE5E5C046FF03000084
:10162000FFFFFFFEFE070000FF07000002FCFFFFB8
:101630001E040000E2FBFFFF3E040000F8B55F4619
:10164000564644464D46F0B40C034D00CF0F610A98
:10165000440F2143C4001803DE0F8046B4464646BB
:101660005800760A530F3343D600C94A6D0DBA4667
:10167000400DB346904200D1EBE062460126724035
:101680009446674500D1A1E02F1A002F00DC08E145
:1016900000283BD15846184300D0E8E0600709D045
:1016A0000F232340042B05D0231DA342A4416442F1
:1016B00009191C1C0A0200D479E0B54B6A1C9A4235
:1016C00000D109E1B34BE40819404807044349023B
:1016D0005205012750460B0B520D074000200021F8
:1016E0001B03201C1C0B0B0D1B05AB4D234352058C
:1016F00052081D4015436D006D08FF07291C394332
:101700003CBC90469946A246AB46F8BDA0488542EF
:10171000C4D0802000040343382F00DDF0E01F2FE9
:1017200000DD24E12020C01B1A1C5E468240FE40E2
:10173000324394465A468240101C421E9041FB4060
:10174000624602431F1CA21A9442A4416442C91B70
:10175000091B141C0A02A1D549024F0A002F00D10F
:10176000C9E0381C00F006FB021C083A1F2A00DD05
:10177000BCE02821231C091A9740CB401F4394400A
:10178000954200DDAEE0551B691C1F2900DDDDE040
:101790001F22551B3B1C221CAB40CA40AC40651E9F
:1017A000AC411343CF401C43391C002576E7480762
:1017B000E4086A0501275646C908520D374004431C
:1017C000734B9D4249D009030B0B87E72A1A9446B5
:1017D000002A00DC9BE0002855D06D48854200D1EE
:1017E0005CE78020000403436046382800DD09E1FF
:1017F0001F2800DD50E162462020801A1E1C864012
:10180000B1465E46D6404A4632435E4686409046E2
:10181000301C421E9041424602436046C3401219AA
:10182000A242A441644259180919141C080200D4A8
:1018300034E7574B01359D4200D142E1554B6008DA
:101840001940012323401C1C0443CB071C434908B7
:1018500024E71E4300D014E70FE70B1C234300D1FD
:10186000CFE180231B030B431B031B0B36E7013F18
:10187000002F66D15E46A21B9442A4416442C91A5D
:10188000091B141C66E75846184300D106E70126D9
:101890007642B4446046002800D0CAE05E46321961
:1018A000BEE7002F7AD1681C4005400D012800DCFE
:1018B000E3E05A46A21A9442BF41C81A7F42C71BAE
:1018C0003E0200D492E05846041BA3459241591AA7
:1018D00052428F1AE24641E7534601271F40002437
:1018E0000023FBE62B49AD1A3940D7E6271C2838E0
:1018F0008740002444E7201C00F03CFA203033E706
:101900005A461A43531E9A41D2B200271BE7002AB7
:1019100000D0E1E0681C4605760D012E00DC91E068
:101920001B4DA84200D1F7E05E463219A242A44105
:10193000644259180919CC07520814434908051C78
:10194000ACE61348854200D0E6E6A7E62B1C1F3B19
:101950003E1CDE40331C202970D03F22551BAF4077
:101960003C43601E84411C430021002596E6381C40
:1019700020381E1CC640301C202F61D04022D71BAF
:10198000BB405A461A43531E9A4102430027DAE6E7
:10199000FF070000FFFF7FFFFFFF0F80002D38D003
:1019A000B94DA84200D192E080252D047F42294301
:1019B000382F00DDAAE01F2F00DD2CE12025ED1BD4
:1019C0000E1CAE40B046261CFE404246AC401643BC
:1019D000651EAC413443F9405A46141BA34592415D
:1019E0005B1A5242991A051CE246B3E6131C3B43AC
:1019F000141C002B00D0B1E6002700220025002196
:101A00000024DDE65A461A43531E9A41D2B20023FF
:101A100005E70D1C25435AD0FF43002F53D15A46EA
:101A2000141BA3459241591A5242891A051CE246D9
:101A300090E69548854200D0D6E62FE600278FE74E
:101A400000239EE7081C2043002D00D0C3E000289F
:101A500000D1F6E05846184300D11FE65846021957
:101A6000A242A441644259180919141C0A0200D464
:101A700014E6864B0125194010E6081C2043002D72
:101A80003AD1002800D089E05946194300D1BFE07F
:101A9000191C5C46E24601E6604620381A1CC2402A
:101AA0006646101C202E00D1B0E04022921B9340CD
:101AB0005A461A43531E9A4102430023AFE6724D21
:101AC00000272A1C9BE7704DA84200D070E7191C24
