:020000021000EC
:10C000000040002005D0010041D0010043D00100D4
:10C010000000000000000000000000000000000020
:10C0200000000000000000000000000045D00100FA
:10C03000000000000000000047D0010049D00100CE
:10C040004BD001004BD0010011FC01004BD001008E
:10C050004BD00100000000004BD001004BD001008C
:10C060004BD001004BD0010001F601004BD0010084
:10C070004BD001004BD001004BD001004BD0010050
:10C080004BD001003DFE01004BD001004BD0010020
:10C090004BD0010061000200E11402004BD001000E
:10C0A0004BD001004BD00100000000000000000058
:10C0B0000000000000000000000000000000000080
:10C0C00010B5064C2378002B07D1054B002B02D06E
:10C0D000044800E000BF0123237010BDA028002009
:10C0E000000000007878020008B5084B002B03D050
:10C0F0000748084900E000BF07480368002B03D049
:10C10000064B002B00D0984708BDC0460000000039
:10C1100078780200A4280020A02800200000000059
:10C12000164B002B00D1144B9D46402292029A1AC6
:10C13000924600218B460F461348144A121A07F004
:10C1400015F90F4B002B00D098470E4B002B00D059
:10C1500098470020002104000D000D48002802D05F
:10C160000C4800E000BF07F08BF82000290001F028
:10C17000D6FB07F06FF8C046000008000040002022
:10C180000000000000000000A02800202836002049
:10C19000000000000000000010B50C20002101F09C
:10C1A0004DFA084C0521201C00F005FF0021201C41
:10C1B00000F001FF01210842F8D10C2001F03EFA05
:10C1C00010BDC046C02E002010B50A20012101F08C
:10C1D0000DFA0A20012101F031FA0021112001F0AD
:10C1E00005FA084C201C00F0DFFE201C064900F078
:10C1F000F6FE201C002100F0E9FE201C012100F0C9
:10C20000F3FE10BDC02E002000127A0010B5FFF71B
:10C21000DBFF0C20002101F011FA1B4C0621201C31
:10C2200000F0C9FE0C20012101F008FA0C200021C9
:10C2300001F004FA201C012100F0BDFE201C0021A9
:10C2400000F0B9FE0C20012101F0F8F90C200021CA
:10C2500001F0F4F9201C062100F0ADFE0C200121B4
:10C2600001F0ECF90C20002101F0E8F9201C60211C
:10C2700000F0A1FE01210C2001F0E0F9FFF78CFF96
:10C28000201C00F09DFE10BDC02E002070B5051CC6
:10C290000E1CFFF799FFFFF77FFF0C20002101F034
:10C2A000CDF9154C0621201C00F085FE0C20012143
:10C2B00001F0C4F90C20002101F0C0F9201C02217A
:10C2C00000F079FE290CC9B2201C00F074FE290A86
:10C2D000C9B2201C00F06FFEE9B2201C00F06BFE1A
:10C2E000311C201C00F067FE01210C2001F0A6F992
:10C2F000201C00F065FE70BDC02E00200C2008B58B
:10C30000002101F09BF9012001F05EF9112001F0FC
:10C31000B5F90028FAD00C20012101F08FF908BDF1
:10C32000F7B5071C0E1C0192012A02D87ED10978AC
:10C330007AE0FFF749FFFFF72FFF0C20002101F003
:10C340007DF93B4C7021201C00F035FE0C200121B2
:10C3500001F074F90C20002101F070F90621201C75
:10C3600000F029FE0C20012101F068F90C200021C9
:10C3700001F064F9AD21201C00F01DFE390CC9B29A
:10C38000201C00F018FE390AC9B2201C00F013FE70
:10C39000F9B2201C00F00FFE3178201C00F00BFEDB
:10C3A0007178201C00F007FE0C20012101F046F9F5
:10C3B000FFF7A4FF0225019B0C20013B0021AB42AB
:10C3C00017DD01F03BF9AD21201C00F0F4FD715D9B
:10C3D000201C00F0F0FD73195978201C00F0EBFDD3
:10C3E00002350C20012101F029F9ADB2FFF786FFDB
:10C3F000E1E701F023F90421201C00F0DCFD0C2012
:10C40000012101F01BF90C20002101F017F9802116
:10C41000201C00F0D0FD0C20012101F00FF9019B40
:10C420009D4203D2715DE819FFF730FFF7BDC046AA
:10C43000C02E0020F8B50D1C171C061CFFF7C4FE0B
:10C440000C20002101F0FAF8134C0321201C00F00D
:10C45000B2FD290CC9B2201C00F0ADFD290AC9B2F9
:10C46000201C00F0A8FDE9B2201C00F0A4FD351C42
:10C47000AB1B9BB2BB4206D2201C002100F09BFDEF
:10C4800028700135F4E701210C2001F0D7F8201CB9
:10C4900000F096FDF8BDC046C02E002008B50A2069
:10C4A000012101F0A3F81020012101F09FF81220D2
:10C4B000012101F09BF81120012101F097F81620CD
:10C4C000012101F093F81520012101F08FF81420CB
:10C4D000012101F08BF81320012101F087F808BD3C
:10C4E00008B50720012101F0A9F80B20002101F077
:10C4F000A5F80820002101F0A1F80B20012101F08E
:10C5000075F80720002101F071F8FFF7C7FF08BD9B
:10C5100008B50B20002101F091F80021082001F05E
:10C520008DF8012001F05BF80820012101F086F868
:10C53000072001F0A3F80028FAD008BD38B5011C87
:10C540000125041C29400A2001F078F8A107C90F31
:10C55000102001F073F86107C90F122001F06EF886
:10C560002107C90F112001F069F8E106C90F162053
:10C5700001F064F8A106C90F152001F05FF861060B
:10C58000C90F142001F05AF8E109132001F056F800
:10C59000291C0B2001F052F80B20002101F04EF86D
:10C5A00038BD10B50A20012101F048F81020012102
:10C5B00001F044F81220012101F040F8112001217E
:10C5C00001F03CF81620012101F038F81520012176
:10C5D00001F034F81420012101F030F8132001217A
:10C5E00001F02CF80A240B20012101F027F8013C6E
:10C5F0000B20002101F022F8002CF4D110BD000026
:10C60000F8B5FFF76DFFFFF783FF204C0021201CDA
:10C610000522FFF70FFF2378AA2B36D1A578637880
:10C620002D021D43E37805211B041D4323791B06BE
:10C630001D434E1CFF36AE4211D28022201C5200F8
:10C64000FFF7F8FEFFF72AFF0027E05DFFF776FF10
:10C65000013780235B009F42F7D1311CE9E7A942F3
:10C6600002D3FFF79EFF10E0053DEEB2201C321C06
:10C67000FFF7E0FEFFF712FF0025EBB2B342F0D266
:10C68000605DFFF75BFF0135F7E7F8BD3D2A00204D
:10C6900010B5054B041C036001F0D4F8201C01F018
:10C6A00023F9201C10BDC046606E020010B5041CAA
:10C6B000FFF7EEFF201C05F0CEFB201C10BD000094
:10C6C00010B5034B041C0360FFF7E2FF201C10BDF4
:10C6D000786E020010B5041CFFF7F2FF201C05F075
:10C6E000BAFB201C10BD000008B50248024900F04A
:10C6F0009EFE08BD542F0020BC6C020070B51D1CAE
:10C70000C37F041C5E1901201D2E13DC2818E05481
:10C71000E37F0133DBB2E377E154E07F111C0130AA
:10C72000C0B2E0772A1C201806F0FEFDE37F00204F
:10C73000ED18E57770BD08B50368011C021C0A31CD
:10C7400034321B6D984708BD38B50123041C0370B3
:10C750000D1CC018211C031C113100221A7001335A
:10C760008B42FAD1012362822370291C102206F029
:10C77000DBFDAB78EA781B021343201C638238BDD3
:10C78000F7B51E1C08AB1B88451C009309AB1B7832
:10C79000041C01930B78171C03704B8A10224382F0
:10C7A0000131281C06F0C0FD0099019A0023618325
:10C7B00067612683A683E3830121EA77A21CD177F0
:10C7C0000A99263261620B9953701170211C937083
:10C7D0004431E36223630C320023137001328A4236
:10C7E000FAD1221C211C6364A364E362E364236521
:10C7F000543264310023137001328A42FAD1201C72
:10C800006366A366E364FEBD08B500680368DB6881
:10C81000984708BD08B5006803685B69984708BD7C
:10C82000F7B50C4B0C48DF8B0C4B00241E78FFF740
:10C83000F1FF036800940A4DDA68391C331C9446F2
:10C840002A1CE047281C211C142206F08FFD054BF2
:10C850001C70F7BD54290020C4280020BD280020EA
:10C86000282A0020C828002010B5FFF7CDFF041C9F
:10C87000FFF761FF211C08C9201C5B6D984710BDA4
:10C8800008B50448FFF7F0FF0348044900F0CFFD66
:10C8900008BDC046C4280020542F0020C16C0200EF
:10C8A00008B50C4800F08CFB0B20002100F0C6FE00
:10C8B0000820012100F09AFE0820002100F0BEFEB1
:10C8C0000720002100F092FE0720012100F0B6FEB3
:10C8D00008BDC046C02E002037B54D4C201C00F0CE
:10C8E00095FF201CFFF790FF4A4B4366201CFFF783
:10C8F0008BFF494B0366201CFFF78CFF051C202093
:10C9000005F0C2FA002202604260021C031C0832D9
:10C9100018300021117001328242FAD13F4A9961E8
:10C92000D9611A606A698A4200D0DA616B61201CA1
:10C93000FFF76AFF6A46042307320121051C1370C2
:10C940000A300B1CFFF7DAFE002802D1281CFFF783
:10C95000F2FE201CFFF758FF0821051C304A0A3060
:10C960000423FFF7CBFE002802D1281CFFF7E3FECB
:10C97000201CFFF749FF0721051C2A4A0A30102313
:10C98000FFF7BCFE002802D1281CFFF7D4FE201CB4
:10C99000FFF73AFF00230371201CFFF73BFF0368FA
:10C9A00021491B689847201CFFF72EFF03681F4989
:10C9B0005B6B9847201CFFF727FF036804215B6C23
:10C9C0009847201CFFF720FF0368051C9B689847C9
:10C9D000A023984204D92B68281C9B689847031C05
:10C9E000FA2080005843124907F024F9E880201CFF
:10C9F000FFF70AFF00250581201CFFF735FF291CE2
:10CA0000032000F0F3FD0320012100F017FE37BDE5
:10CA1000C428002081C80100E9C601004DCC0100F6
:10CA2000C66C0200D36C0200042A0020CB6C02000A
:10CA30007102000008B50C20012100F0D7FD0C2088
:10CA4000012100F0FBFD0A20012100F0CFFD0A20AA
:10CA5000012100F0F3FDFFF7B7FB0720012100F0F3
:10CA6000C5FD0720002100F0E9FD0820002100F0AD
:10CA7000BDFD0B20012100F0E1FD0B20002100F0A5
:10CA8000B5FDFFF729FF08BD10B50620012100F014
:10CA9000ADFD0920012100F0A9FD0520012100F0D4
:10CAA000A5FD0620012100F0C9FD0920012100F0AB
:10CAB000C5FD0520012100F0C1FD0C20012100F081
:10CAC00095FD0C20012100F0B9FD0B20012100F0A3
:10CAD0008DFD0820012100F089FD0720002100F0D4
:10CAE00085FD0720012100F0A9FD0D20002100F0A7
:10CAF0007DFD0B4C9621201C890100F075FE201C49
:10CB0000084900F03FFEFFF77BFDFFF793FF082089
:10CB1000002100F06BFD0D20002100F067FD10BD2D
:10CB2000542F0020EDCE010070B5FF240E1C211AF9
:10CB30000620151C00F08CFCA11B092000F088FCCD
:10CB4000611B052000F084FC70BD0000002008B5CA
:10CB5000011CFF22FFF7E8FF642000F040FD0020E9
:10CB6000011C021CFFF7E0FF642000F038FD034BBE
:10CB7000186803689B6A984708BDC046C42800200F
:10CB8000F0B58BB000F06AFF224D234B00241860F3
:10CB9000281C00F083FE214BAC612B60EC62204A24
:10CBA000281C204905AD05F04FF9281C1E49FFF748
:10CBB000CBFD14260C2300960193291C1B4A01234C
:10CBC000029403941A48FFF7DBFD1027281C19492B
:10CBD000FFF7BAFD0096291C174A0123019702941A
:10CBE00003941648FFF7CCFD281C1549FFF7ACFD50
:10CBF000144E2B78694633706B8A701C7382153122
:10CC00003A1C06F091FB022333750F4BB483B361DA
:10CC10000BB0F0BDD4290020C4280020786E02009B
:10CC200000280020C1C601008C6C0200C029002031
:10CC3000E8280020AC6C0200C928002054290020FC
:10CC40009C6C0200042A002004280020F0B50F4A42
:10CC50000388D48B87B09C4216D10D48FFF7DAFDCC
:10CC60006D46036801AE02355F68211C321C2B1C27
:10CC7000B84700242B88A34206D9315D054801340A
:10CC800000F04AFDE4B2F5E707B0F0BDE828002067
:10CC9000C4280020542F0020F7B58A4C2378271C85
:10CCA000DBB2022B0DD0032B00D108E1012B00D009
:10CCB00007E1FFF7F5FD02232370834B00221A7072
:10CCC000FFE0824D281C00F0FFFC031CC6B20104EB
:10CCD00000D5F6E07C4C2078052800D9F1E006F07C
:10CCE0009FFF032C51A4BADF794A00231360794ACD
:10CCF0001360462E05D1784A1370784A13700123C9
:10CD000006E0562E0AD1744A1370744A0123137038
:10CD10002370281C522100F0FFFCD2E0522E06D1D5
:10CD20006D4A012313702370281C311CF3E7452E34
:10CD300000D0C6E0FFF76AFA8AE0654ADBB2106805
:10CD4000411CC000834063481160066833430360A0
:10CD500063480360032900D8B3E0002313605E4BEF
:10CD60001B785BB2002B06D003232370FFF7B8FBC0
:10CD7000FFF7CEFB03E002232370FFF747FA281CDE
:10CD80004F21C8E7524F3B68002B03D10520311CCF
:10CD9000FFF77CFA3868421ED2B201920199514ADB
:10CDA000431C56543B60161CFF2907D1002B05D0AD
:10CDB000111C8022FA385200FFF7B2FA454B38684E
:10CDC0001B6898427DD1019AFF2A05D00430801A51
:10CDD000311C0132FFF7A4FA322000F0F5FB3F6866
:10CDE00001260537404B3A1CF118C900CA40301CD7
:10CDF000D1B2FFF74BFA0136322000F0E5FB052EE9
:10CE0000F0D1AA210020FFF741FA322000F0DCFB2C
:10CE1000281C442100F080FC304B1B785BB2002BB7
:10CE200001D004233AE026704BE0301CFFF786FB6C
:10CE3000274A136801331360264A1268934240D18F
:10CE4000FFF7AFFB0023237003233B70FFF7F2FDD6
:10CE5000281C44215FE7532E33D11D4B00211A6853
:10CE600005321A601A4A1668B14216D24B1CFF33BB
:10CE70000193B34202D9761AB6B201E08026760059
:10CE8000184F321C381CFFF7D5FA2B68391C5B6829
:10CE9000281C321C98470199E4E70523237010E011
:10CEA0004C2E0ED1FFF7ACFB281C442100F034FCC3
:10CEB0000023237003233B70FFF7BCFD01E0FFF765
:10CEC00045FEF7BD0C280020BC280020542F002070
:10CED000E0280020242A0020E42800203C2A00200A
:10CEE000C02800203D2A0020FFFFFF1F70B5002949
:10CEF00024D1134B1C78002C0AD1012211481A703E
:10CF0000114BC4628361114900F0A4FC104B1C70EA
:10CF1000104C201C00F0CCFB00280FD00C4D201C26
:10CF20002E78132E07D800F0CFFB0B4B98552B789B
:10CF300001332B70ECE700F0C7FBE9E770BDC0469A
:10CF4000C8280020D429002021C80100A0860100A3
:10CF5000BD280020542F0020282A0020F7B5041CEB
:10CF6000081C1F1C161C00F067FA051C301C00F082
:10CF700063FA061C381C00F05FFA01235B42311C87
:10CF8000021C0093201C2B1C00F032F90022201CF4
:10CF9000131C082100F0B2F8201C024900F0E6F84A
:10CFA000F7BDC04640420F0008B5102112221123E0
:10CFB000FFF7D4FF08BD08B500F004FAC0B208BD01
:10CFC0000268A0230021DB00D150704708B50A1E7B
:10CFD000032A03D80821002300F090F808BD08B503
:10CFE00000F0C4F808BD00000268054B012901D11A
:10CFF000D15802E0D15801200143D1507047C046BA
:10D00000540500000848026803210A4302600749EA
:10D01000074A084B9B1A03DD043BC858D050FBDC81
:10D0200005488047054800472405004084780200F1
:10D0300000280020A02800204DD0010021C10100BF
:10D04000FEE7FEE7FEE7FEE7FEE7FEE7234B10B54F
:10D050001A78181C012A12D1214B1B6819070ED10E
:10D06000204BF0221B68E024191C1140234204D1FC
:10D070001D4B1B68134202D120E03029F8D0037801
:10D08000012B0DD1164A1268110709D1154A1168F2
:10D09000F0221140402903D113490968114215D0EB
:10D0A0008022A323D2050121DB00D1500F4B0020A9
:10D0B000986091609A68002AFCD00DE00C490D4AF6
:10D0C000116080210C4A09021160D8E7C122802139
:10D0D000D200C9058B50E3E710BDC046E00F00F059
:10D0E000E40F00F0E80F00F0EC0F00F0FC0000404F
:10D0F000DFFF07C004050040186C004070B51D1C20
:10D10000A023041C161CDB00002D03D04068002265
:10D11000C25001E00268D550082902D0104802F040
:10D1200034F9032E08D8301C06F07AFD090B0204EE
:10D13000042207E0062205E00A4802F026F9002250
:10D1400000E00222A023DB000748002D03D0616825
:10D150000A50022202E021680A500122CA5070BD22
:10D16000E36C0200FC6C020054050000036810B57B
:10D170005A1C2ED0A022174CD20000209850101C10
:10D18000154AA14202DC802189041FE0134CA14210
:10D1900002DC8021C90419E0114CA14202DC80218B
:10D1A000090513E00F4CA14202DC802149050DE086
:10D1B0000D4CA14202DC8021890507E00B4CA14205
:10D1C00002DC8021C90501E0802109069950012275
:10D1D0001A5010BD8FD00300240500001FA10700C6
:10D1E0003F420F007F841E00FF083D00FF117A00C0
:10D1F000F7B5009308AB1B78051C5BB20F1C161C1F
:10D200000193013329D1624B1A78022A10D159783F
:10D21000FAB291420CD19978F2B2914208D10098B9
:10D22000DA78C3B29A4203D101232B72594C3BE006
:10D23000594B1A78D2B2022A0FD15878F9B28842E3
:10D240000BD19878F1B2884207D10098D978C3B24F
:10D25000994202D12A72514C26E04F4B1A78002A8B
:10D260000BD10222F9B200981A705970F1B299707C
:10D27000C1B2D9702A72494C13E0454B1A78002A82
:10D280000CD102221A700099FAB25A70F2B29A7056
:10D29000CAB2DA7001232B723E4C02E0404802F021
:10D2A00074F8019A01322ED101233E485B426B6033
:10D2B000012100232C6023502150E0204000C019A0
:10D2C000A022D20580008150374827500098C130F5
:10D2D000FF30800081500098A121C9006050E020FB
:10D2E0004000311889008B50A222D200A650FC3495
:10D2F000281CE36008211A1CFFF700FF281C2B499B
:10D30000FFF734FF42E0012326495B42E0202B6017
:10D310000022012340006C60C01962506350A021BC
:10D32000C90580004250E020400080198000425032
:10D330000098C130FF30800042500198C130FF306A
:10D3400080004250A221C9006750174900986650DA
:10D35000A121C9006050164901986050211CFC3180
:10D360008A60CA62A721C9006350A921C90063501D
:10D370001048114960501149114860508021042023
:10D3800089006050281C0821FFF7B8FEF7BDC04691
:10D39000B434002000300040B83400200040004089
:10D3A0000D6D0200FC0F00000C05000040420F0054
:10D3B00014050000CD2E00204405000034050000B7
:10D3C000CC2E002003681A1CFC32D268002AFAD145
:10D3D000064A995003681A1CFC32D1680129FAD117
:10D3E0000021D160A322D200985870471C0500008C
:10D3F000F8B5061C0C1C8F180025BC4207D03368FA
:10D4000021781B68301C984701342D18F5E7281C3B
:10D41000F8BD38B5051C0C1C081E07D006F0DAF85C
:10D420002B68021C5B68281C211C984738BD08B576
:10D43000FFF7EFFF08BD0000FF23182801D8024BBB
:10D440001B5C58B27047C0461E6D02000000000011
:10D45000F0B589B0071C0C1CFFF7EEFF061C701C12
:10D4600004D153485349822201F03AFF524B002124
:10D470005956B1420AD001229A56B24208D09B783E
:10D480005BB2B34206D001310AD124E0002302E0AE
:10D49000012300E00223494A1078082806D10DE054
:10D4A00001321AD001337AD1022517E0082802D9B7
:10D4B0000838C44002E00822101A844007AD2B70DF
:10D4C000201C07F009FA3E4906F00CFD011C281C3F
:10D4D00002F0BCF963E0002500E001250195002C75
:10D4E0000ED13548FF23019A435507A8027002F078
:10D4F00049F9381C012100F079F8381C211C2DE075
:10D500002E4B187808F0B6FF021C0B1C2749264842
:10D5100004F002FD02900391201C08F0ABFF234BA6
:10D52000214A049005910298039908F03BFC021CE3
:10D530000B1C0498059906F001FC002811D01E4828
:10D54000FF234355019B6A4607A8137702F01AF997
:10D55000381C012100F04AF8381C012100F06EF857
:10D560001DE0019A68460277311C07A802F000FA14
:10D57000124B1878082806D002D90838C44002E0B7
:10D580000823181A8440201C07F0A6F90C4906F05D
:10D59000A9FC011C07A802F059F9074B5E5509B018
:10D5A000F0BDC046C046C04600000000000000407C
:10D5B000376D02004E6D02000D280020102800205B
:10D5C00000007F43C046C04638B5041C02F0A0FCF2
:10D5D000051C02F09DFC401BA042FAD338BD08B5E3
:10D5E000FA239B005843FFF7EFFF08BD30B587B023
:10D5F0000C1CFFF721FF051C431C04D10D480E49EC
:10D600000F2201F06DFE6B461D70012C06D0002C20
:10D6100004D0022C0BD10021032501E0211C0025A0
:10D62000684601F08FFF6846291C01F085FF07B0AE
:10D6300030BDC046376D0200BE6D020038B50D1C0E
:10D64000FFF7FAFE041C431C04D1094809492322B0
:10D6500001F046FE0122A023A240DB05141C002D90
:10D6600002D0A121C90000E003495C5038BDC0468A
:10D67000376D0200BE6D02000C05000010B5FFF70B
:10D68000DBFE041C431C04D106480749302201F08C
:10D6900027FEA223A022DB00D205D0580123E040C0
:10D6A000184010BD376D0200BE6D020001207047AA
:10D6B000044B1A1C803282331B881088C01A3F2307
:10D6C00018407047CE2E0020094A111C101C8231D0
:10D6D00080300B880088984206D05800105C0133D7
:10D6E0003F2213400B8001E0012040427047C046BA
:10D6F000CE2E0020074B1A1C191C82328031128852
:10D700000988914202D05200D05A01E001204042E3
:10D710007047C046CE2E002007B5034B68460093E5
:10D7200002F0F6FA0EBDC0460020004007B5044BDB
:10D730000093684602F0FAFA0028FAD007BDC04606
:10D740000020004030B5084B3F211A1C803214885D
:10D75000651C29401D1C82352D888D4202D0640035
:10D76000E052118030BDC046CE2E00200023436021
:10D77000FA239B008360024B083303607047C04666
:10D78000306E020007B5054B0093002301939942C8
:10D7900003D06846012202F069FA07BD002000406C
:10D7A00073B5101C1E1C0C1CFFF746FE051C301C1C
:10D7B000FFF742FE0B4B2A1C011C6846009302F047
:10D7C000C5F901235B421A1C6846002102F0B6FA33
:10D7D0006846211C02F096F968460021012202F0F9
:10D7E00051FA73BD0020004008B500220123FFF765
:10D7F000D7FF08BD08B5034803F08AFE0248FFF7CB
:10D80000B5FF08BDCE2E0020542F002008B50068BB
:10D8100003681B68984708BD4368426910B5D11872
:10D82000041C00F051F8E36A002B04D1A369002B1B
:10D8300007D0984705E0A069002802D0211C1C31C0
:10D84000984710BD10B5041C00F046F80023A361F2
:10D85000E36210BD38B50D1C041C00F03DF8656195
:10D86000206901F02EFE4119201C00F02DF838BD72
:10D8700008B5C36A011C002B04D18369002B06D0B4
:10D88000984704E08069002801D01C31984708BD02
:10D8900008B503689B68984708BD0000084B10B5A1
:10D8A00008330360002343608360C360041C01F0FD
:10D8B0000DFE0449206101F09FFD201C10BDC046F3
:10D8C000886E020091D8010008B50A1C031C011DD6
:10D8D000006901F0BDFD08BD08B5011C04310069F7
:10D8E00001F0D2FD08BD000010B5044B041C083344
:10D8F0000360FFF7F1FF201C10BDC046886E0200D8
:10D9000010B5041CFFF7F0FF201C04F0A4FA201C43
:10D9100010BD08B5012005F09DFC7047704708B5A3
:10D92000FFF7FCFFFFF7F9FF03F0ECFD08BD000077
:10D93000084B1B681818EFF30882904205D3064B7A
:10D940000C2201201A60404202E0024A1060181CBA
:10D950007047C046142800202436002008B500284F
:10D9600000D1FEE701F0D8FCFBE766DF704748DF37
:10D9700070470000014B083303607047A06E02003F
:10D9800008B5FFF7F4FF08BD10B5044B041C0833BD
:10D99000036004F060FA201C10BDC046A06E0200B7
:10D9A00008B500F0BBFA08BD08B500F0B7FA08BD2D
:10D9B00008B500F0A7FE08BD08B500F0A3FE08BD3D
:10D9C00008B500F017FC08BD08B501F05FF808BD08
:10D9D00008B501F05BF808BD08B501F02DF900208D
:10D9E00008BD08B503F05CFD421E9041404205238E
:10D9F0000340181C08BD0000134B37B51A781D1CD6
:10DA0000124C002A1DD16846FFF7AFFF002813D142
:10DA100069464B88592B0FD10A788B88072A03D186
:10DA2000201C20210A4A02E00A4A201C202105F07D
:10DA30009FFD01232B7004E0201C0749202205F0E4
:10DA4000D0FD201C3EBDC046882F0020682F00203E
:10DA5000E06E0200F66E0200146F0200004870478C
:10DA6000642F002008B5044B044808330449054AD4
:10DA7000036004F0E9F908BDA06E0200642F0020E5
:10DA800075D901000028002070DF704771DF7047F2
:10DA900072DF704773DF704774DF704775DF704760
:10DAA00076DF704777DF704778DF704779DF704740
:10DAB0007ADF70477BDF70477CDF70477DDF704720
:10DAC00086DF704787DF704788DF70470220704726
:10DAD00002207047002070470020704700487047C0
:10DAE000FFFF0000022070470220704702207047AD
:10DAF00002207047022070470220704702207047C2
:10DB000002207047022070470220704702207047B1
:10DB100002207047022070470023136070470220E4
:10DB20007047816670471420704764207047A020BA
:10DB3000800170471FB50C1C10220021684605F0BB
:10DB400015FC684601780123A27999431A400B1C01
:10DB5000134303702388038163884381A3888381EF
:10DB6000FFF7AEFF002800D0032004B010BD08B5B9
:10DB7000FFF7A8FF421E9041404205230340181CB6
:10DB800008BD0000F0B50D78061C87B00C1C022003
:10DB9000012D25D04B88032D06D1A03B114A9BB205
:10DBA000934205D903201BE0203B9BB20E4AF7E7C6
:10DBB000A7880E4B9F42F5D818226846002105F031
:10DBC000D5FB63886A466846157013825782FFF753
:10DBD00061FF0028E6D158363378012213433370B1
:10DBE00007B0F0BD603F0000E03F0000FF3F0000D5
:10DBF00010B5041CFFF750FF021C0320002A06D1B9
:10DC0000201C5830037801218B430370101C10BD79
:10DC100030B589B01C1C68466B461A70013006226C
:10DC20000C9D05F081FB02AA002C07D023881380ED
:10DC300063885380A3889380E38806E032231380AF
:10DC400064235380962394809B0004A90878D38092
:10DC5000FC2303400B7000234B609D4206D02B88B1
:10DC60000B816B884B81AB888B8105E0FA235B00CD
:10DC70000B81C8234B818D816846FFF725FF031C6C
:10DC80000020834215D0082B12D005D80720042B82
:10DC90000FD083420AD107E00520112B09D0064A94
:10DCA000934201D0102B01D1042002E0092000E0B2
:10DCB000062009B030BDC04602320000031C5833B4
:10DCC00010B51C78FC20204018703B239A4200D0ED
:10DCD0001323081C191CFFF7E3FE002800D00320C3
:10DCE00010BD08B50A1C0368011C9C3109881B6A19
:10DCF000984708BD08B5081CFFF7DCFE002800D0D7
:10DD0000032008BD08B5081CFFF7D2FE002800D08C
:10DD1000032008BD08B5081C111CFFF7BFFE421EFA
:10DD20009041404203230340181C08BD37B56846A4
:10DD30000D1C141CFFF7AAFE032300280FD1002D91
:10DD400002D06A4613782B70002C07D06946201C3D
:10DD50000131062205F0E8FA002300E0231C181C1C
:10DD60003EBD08B5081C111CFFF7A8FE421E9041DD
:10DD7000404203230340181C08BD08B5081CFFF7E8
:10DD800093FE421E9041404203230340181C08BDED
:10DD900008B5081CFFF78AFE424250414042032367
:10DDA0000340181C08BD08B5081CFFF77BFE0023C4
:10DDB000984203D00523112800D00323181C08BD66
:10DDC000024B0B60092313607047C046F06F0200DE
:10DDD00008B5816601200A1C011C02F051F908BD3A
:10DDE00037B5112301AD081C2B700C1C05F0F2FB9C
:10DDF000211C82B2281CFFF75FFE421E9041404268
:10DE000003230340181C3EBD13B50324A1420ED8C2
:10DE10006B46684619700130111C062205F084FA21
:10DE200000206946FFF730FE002800D1041C201CAA
:10DE300016BD38B50C1CC97F151C01201F2911D82F
:10DE400000290ED0D37F0022934200D02A1C201C30
:10DE5000FFF71EFE002804D1208CFFF725FE0028C6
:10DE600000D0032038BD00002B4BF7B5061CA022C4
:10DE700003600A360023011CC280041C0371038165
:10DE8000321C29310023137001328A42FAD18025D5
:10DE90008021C901AD00201C0A1CF37735842C3089
:10DEA0000093271C03F042FB3437211C3A1C5331EA
:10DEB0000023137001328A42FAD1221CFB775432BC
:10DEC0001079FC21014015801171E36523666366BA
:10DED000A366E3662367231C7433303200251D706C
:10DEE00001339342FAD1231C0833DD67201C8033B1
:10DEF0001D600421E5668C3003F04CFB291C301CAE
:10DF00001F2205F033FAF577381C291C1F2205F073
:10DF10002DFAFD77201CFEBD286F020038B50F4D8D
:10DF20000F4C2B68DB0717D4281C03F09AFF00283E
:10DF300012D0201CFFF798FF0A4B01220833236000
:10DF4000231C52429C33281C1A8003F099FF201C8A
:10DF50000549064A03F078FF201C38BD2C3000200C
:10DF60008C2F0020886F02007DDF01000028002038
:10DF70009C30018070479C300088704710B5044B7E
:10DF8000041C03608C3003F039FB201C10BDC0461C
:10DF9000286F0200022070470220704790DF704710
:10DFA00095DF704797DF704742300078431E9841F5
:10DFB000C0B2704788239B00C15070478C239B00E0
:10DFC000C150704752300078431E9841C0B270472C
:10DFD00008B5081C111C1A1CFFF7E2FF031C0020E7
:10DFE000834204D0113B584243410620C01A08BD69
:10DFF000F0B585B001AC0F1C151C00210C22201CB3
:10E000001E1C05F0B3F90B9B0A9A281C211CA36067
:10E0100027706680E280FFF7C5FF0023984208D092
:10E02000112805D0044A831858424341063300E0C2
:10E030000523181C05B0F0BDFCCFFFFFF7B5019319
:10E040000368041C5B680E1C171C9847051C0620FF
:10E05000002D2ED1019B089963631422E7612018DB
:10E0600005F062F9201C09991422203005F05CF9B2
:10E07000231C3D33A680013B5D70FF2201211A71F4
:10E08000301C1D7099712A1CFFF788FF061C281C84
:10E09000002E0ED02368201C9B689847112E07D0B5
:10E0A000044B9E4202D00620072E02D1042000E03D
:10E0B0000520FEBD0230000013B5049C1030009412
:10E0C000059C0194FFF7BAFF16BD0000F8B5421C8D
:10E0D000002383710383D377374A81630260021C74
:10E0E0003C32011C43864031137053709370D370DF
:10E0F000FF220A704A70021C42321370031C041C77
:10E100004533BD3000215A1E1D1C11701035191CDD
:10E1100000220A700131A942FAD1191C11311833B9
:10E120000A804A808A808342ECD1261CEE21BC36CC
:10E1300049006718351C00212422281C05F016F917
:10E1400015225219A81B311D0023944643546A1D01
:10E150000023137001326245FAD141184B822B76AD
:10E160006B83AB83EB832B842435BD42E3D1EE225A
:10E170005200A350F021FA22490052006318A1185E
:10E18000002204C38B42FBD1FC235B00BC61FE2157
:10E19000E2508722490092006318A118002204C3AC
:10E1A0008B42FBD1FC21490063185C6288239B00F1
:10E1B000201CE250F8BDC04608700200036810B58C
:10E1C0005B68041C9847231C423300221A7090425B
:10E1D00006D088239B00E358934201D0A08898473B
:10E1E00010BD08B5FFF7EAFF08BD08B51030FFF70E
:10E1F000E5FF08BD004870473030002008B50449ED
:10E20000044B081C083310300B60FFF75FFF08BD9C
:10E210003030002018700200A0DF7047A4DF704784
:10E22000A5DF7047A6DF7047A8DF7047A9DF7047FA
:10E23000022070470220704702207047022070477A
:10E24000022070470220704702207047002070476C
:10E2500073B5151C02680E1C009394682B1C321CAD
:10E260000149A04776BDC046FFFF000037B5069CB8
:10E270000020009020886D462880081C111C6A46EA
:10E280000193FFF7CDFF0323002802D12B882380C1
:10E29000031C181C3EBD000073B5151C06AA0E1CFD
:10E2A000117802680093019114692B1C321C0149FA
:10E2B000A04776BDFFFF0000F8B503680F1C161CD1
:10E2C0009D69041CFFF72AFEFFF755FE3A1C011C4E
:10E2D000331C201CA847F8BD38B5074B041C03604D
:10E2E0004068002804D0C56903F0B5FD281CF8E794
:10E2F0006060201C38BDC0464870020010B5041C88
:10E30000FFF7EAFF201C03F0A6FD201C10BD000053
:10E3100038B5074B041C03604068002804D0C56969
:10E3200003F099FD281CF8E76060201C38BDC0464A
:10E330005870020010B5041CFFF7EAFF201C03F020
:10E340008AFD201C10BD000038B5074B041C03607B
:10E350004068002804D0C56903F07DFD281CF8E75B
:10E360006060201C38BDC0466870020010B5041CF7
:10E37000FFF7EAFF201C03F06EFD201C10BD00001B
:10E38000084B10B5041C03601830FFF7DDFF201C9C
:10E390001030FFF7BDFF201C0830FFF79DFF201C49
:10E3A00010BDC04678700200F0B5D48B42791E1CB7
:10E3B00085B00023934218D2DD0045197C352D88A5
:10E3C000A54210D10F33DB00C3186C461A890E34F6
:10E3D00002232380036803AD00949F682B1CB84779
:10E3E000021E04D00DE00133E4E7042009E0238895
:10E3F0000620022B05D12B88101C9A0701D001237F
:10E40000337005B0F0BD0000F0B589B001930FABDB
:10E41000141C1F780D1C061CFFF780FDFFF7ABFDD9
:10E42000002302930EAB1B886A461381019B039362
:10E43000002F13D1737900E001379F420ED2FA000A
:10E44000B2187C321288A242F6D10A37BF00F61900
:10E45000736830220133DB7F134207D1281C211C53
:10E4600002AAFFF7DBFE002826D128E0A842F5D05B
:10E47000102213405A42534104A901338B70019A70
:10E4800000238B800EAB0C80CA608B60FFF7CAFE46
:10E4900080B2002813D0082810D00A4B98420DD023
:10E4A00011280BD0084B984208D0281C211C02AA26
:10E4B000FFF7B4FE002801D0032000E0052009B0DA
:10E4C000F0BDC046033000000134000010B50278F2
:10E4D000002A09D10C78131C002C13D1428A4B8AD4
:10E4E000D31A5A4253410CE00023012A0AD10A7878
:10E4F000012A07D101300131102204F006FF434206
:10E500004341DBB2181C10BDF0B5051C97B0081CC8
:10E510000C9100F0BBFD6C463E34109010A9012018
:10E52000221CFFF779FE002801D00320BCE02388DD
:10E530000C990B908B830C9A0B98137D834213D903
:10E540000C9A0B98926983009C586169002910D13C
:10E55000238B002B0DD1631CDB7F022B09D10B9B7E
:10E560000133DBB20B93E6E72B79002001332B71EB
:10E570009AE0201C00F08AFD002610900D960A9665
:10E58000231C28331B78B3421AD9626AB3009F5800
:10E59000002311AA137011A9CA180020013350706A
:10E5A000102BF8D1414B381C4B82FFF78FFF00280E
:10E5B00003D07B69BF8B0A930D970136F6B2DFE774
:10E5C0006069631CDA7FA31CDB7F0090218B0D98B0
:10E5D0000191618B049002910A9900200391211C02
:10E5E000293109780591211C2A3109780691697928
:10E5F0000F31C90069180431079110A900F098FD86
:10E60000002892D16B79071C1A1C0A3292000F3332
:10E61000AA18DB005460EB189B88E3836B79013305
:10E620006B71231C28331B78BB4298D9616ABB00ED
:10E630005E5811AA0023137011A9CA1800200133D3
:10E640005070102BF8D1194B301C4B82FFF73EFF56
:10E650000A90002825D1301C00F018FD718B109015
:10E660009E2040007269338B0091295C0A989C318E
:10E67000490069180631019110A900F007FE002831
:10E6800000D052E79E2149006A5C531CDBB246323F
:10E690006B5492009C33AA185B005660EB18DB8821
:10E6A000F3837B1CDFB2BCE717B0F0BD012900008B
:10E6B00038B544690D1C002C11D02368002B02D002
:10E6C000281C984709E06068002806D0A369002B41
:10E6D00003D0211C08312A1C9847E469EBE738BDB8
:10E6E00008B5031C101C042905D0052905D00329F1
:10E6F00007D11B6A02E05B6A00E09B6A002B00D036
:10E70000984708BD70B52E4E012533682D4C1D402D
:10E7100053D1301C03F0A5FB00284ED02A4B2571A5
:10E72000A3602A4B65712361294BE560A361294BE6
:10E73000656108332360E56125626562A5622B1C73
:10E74000E21800250433D562502BF9D160197C30D2
:10E7500000210822083504F009FEA02DF6D1221C64
:10E760000023FC32136253629362D36213635363D8
:10E770009363D3639E225200A3549F225200A3525C
:10E78000A0225200A352A1225200A352A222520060
:10E79000A352A3225200A352A4225200A352A522A4
:10E7A0005200A352A6225200A352301C03F068FB71
:10E7B000201C0949094A03F047FB201C70BDC046D4
:10E7C000B433002064320020487002005870020008
:10E7D000687002009870020081E3010000280020A8
:10E7E000F0B50B8891B001900C1C512B4CD00AD87D
:10E7F000012B2AD0502B00D029E1C8880199029022
:10E800004A79002311E0522B37D0532B00D01EE160
:10E81000C8880521029044E00198D9004118803150
:10E8200009880298814203D001339342F4D30AE06D
:10E8300001990A339B00CB185A683021531CDB7FA7
:10E840000B4200D0EDE002212BE00D7A0199CC685B
:10E85000002C00D1FBE02368002B02D0281C984735
:10E8600009E06068002806D0A369002B03D0211CB2
:10E8700008312A1C9847E469EAE7888800210A1CC5
:10E880000B1CFFF7D3FCE2E08B79012B06D0022BA7
:10E8900000D0DCE00B890721029302E00A890621FF
:10E8A00002920198002743799F4200D3CFE001985C
:10E8B000FA0082187C3212880298824211D106290D
:10E8C00063D007290FD0022900D0A5E0029A0CA935
:10E8D0000A80237A8B70A38B8B80E38B2034CB80D0
:10E8E0004EE00137E0E708AD00211022281C04F0BB
:10E8F0003DFD029B201C2B80E38B22306B80238C00
:10E9000000210390A86010220CA8AB800A3704F005
:10E910002DFD0223019A9F40D7197E680CA90B7028
:10E92000331C2A331A7800239A4215D04C363368A8
:10E93000002B02D0281C984709E07068002806D0F8
:10E94000B369002B03D0311C083108AA9847F66937
:10E95000002EECD108AB9B89684683860CA9A08861
:10E96000FFF762FC69468B8E002B70D1029A05A9D5
:10E970000A80A37A8B70E38B8B80238C039CCB80E3
:10E980008C600198FFF794FE61E008AD0021102231
:10E99000281C04F0EBFC02980CAE2880A38B00210D
:10E9A0001022301C6B800A3704F0E0FC0199BF0094
:10E9B000CF197F68012333703B1C29331A78002359
:10E9C0009A4214D02C373B68002B02D0281C984761
:10E9D00009E07868002806D0BB69002B03D0391CF9
:10E9E00008312A1C9847FF69002FECD1AB89B3800E
:10E9F000AB89002B0BD1AB68002B08D0B279012179
:10EA00000A43B2716A883281AA88F3607281A08851
:10EA1000311CFFF709FC1AE00198029AFFF760FE2B
:10EA200015E0A11CC87F0134E17F000208439C0669
:10EA300002D50321840707D40421DC0604D5012173
:10EA40000840414241410331D28B0198E6E711B0C1
:10EA5000F0BD4160704781607047C16070470161DF
:10EA600070474161704708B5081C111C1A1C029BB5
:10EA700000F04EFA08BD08B5081C111C00F0C2FADF
:10EA800008BD08B500F0AAFA08BD000070B50B4E2D
:10EA9000012533680A4C1D400ED1301C03F0E1F90A
:10EAA000002809D0074B6560A560E56025616561B8
:10EAB000301C236003F0E4F9201C70BDB833002043
:10EAC000BC330020C870020070DF704771DF7047F0
:10EAD00060DF704708B502F0BDF908BDF0B5041C51
:10EAE0008BB001F041FE201C00F0FEF820881038A9
:10EAF0000B2800D996E005F093F8063795959552C6
:10EB00009595955C9565A688FFF708FA311CFFF787
:10EB10002FFA201C16300190FFF700FA051C2B1C61
:10EB2000627B58331F78009202221743207DA1791F
:10EB30001F702B6E002B75D06A46009B9074019855
:10EB400093761682D1740990E11D05A8062204F07F
:10EB5000EBFB6846211C0E3106221B3004F0E4FB5F
:10EB60002B6E04A898475DE0A788FFF7D7F93149D5
:10EB7000FFF7FEF9A679FFF7D1F9031C58331A788D
:10EB800002218A431A70436E051C002B02D0381CE8
:10EB9000311C9847281C8C3002F047FD42E0FFF7FB
:10EBA00075FF4369A288A11D002B3BD0101C98471C
:10EBB00038E0FFF7B3F9C36DA279002B32D0101CF7
:10EBC00098472FE0FFF7AAF9A37B69465A07051C6F
:10EBD000900FDA08677B08710A7204A8E11D06220B
:10EBE000DE0704F0A1FB6B461879197AF60F9F75C2
:10EBF000DE7518765976231C0F3307936C352B6816
:10EC0000002B02D004A8984709E06868002806D0C5
:10EC1000AB69002B03D0291C083104AA9847ED6981
:10EC2000002DECD1FFF76EFD211CFFF7D9FD0BB0D5
:10EC3000F0BDC046FFFF00001FB508201C49482258
:10EC4000002302F009FC00280AD080B2002807D176
:10EC5000BFF34F8F174A184BDA60BFF34F8FFEE7B1
:10EC6000002302A80293436001230370FFF730FFE3
:10EC7000002801D0072417E06846FFF727FF002887
:10EC8000F8D16946FFF720FF0028F3D10B4802F0C6
:10EC900013FC84B2002C07D1094802F017FC84B29F
:10ECA000002C01D100F0A8F8201C04B010BDC04613
:10ECB000D43300200400FA0500ED00E0DDEA010095
:10ECC000D5EA01007047000080B2002807D1BFF3E9
:10ECD0004F8F034A034BDA60BFF34F8FFEE7704755
:10ECE0000400FA0500ED00E07FB5041CFFF782FA8E
:10ECF000051C031C20881035303808286AD804F019
:10ED00008FFF0569122D213D694A5900E288002ACA
:10ED100005D1211C0C31281C02F082FE5AE01B692F
:10ED2000281C9B6855E0E288002A05D1211C0C3183
:10ED3000281C02F007FF4DE052331A78022A49D10D
:10ED4000032219E01B69281C5B689847002841D002
:10ED5000211C0C31281C02F061FF3BE0E288002AF4
:10ED600005D1211C0C31281C02F0D4FC32E05233B6
:10ED70001A78042A2ED101221A702BE0A38901AE41
:10ED80003380E3897380238A1234B3800394FFF7BE
:10ED900031FA43681AE0A38901AE3380A37BB370D4
:10EDA000238AB380638A1434F3800394FFF722FA32
:10EDB00083680BE0A38901AE3380A37BB370238A01
:10EDC0001234B3800394FFF715FAC368002B01D007
:10EDD000301C9847281C02F001FD281C02F0C6FDDB
:10EDE000281C02F053FD7FBD77DF704778DF704746
:10EDF0007ADF70477CDF70471FB5002302AC0393B6
:10EE000028232380C8235B006380E38001A81123AB
:10EE10000C4905220370FFF7EDFF80B200280FD1E7
:10EE200080208000FFF7E2FF80B2002808D1201C7C
:10EE3000FFF7DEFF80B2002802D1FFF7D5FF80B2D6
:10EE400004B010BDE870020068DF704770B50B7841
:10EE50000C1C142B1BD002D8132B05D053E0152B00
:10EE60001FD0222B46D04EE04D68FFF70FFE63689F
:10EE7000061C1888AB787468D9079A07C90FDB0697
:10EE8000C9B2D20F5B0F002C3DD0A0473BE0FFF78B
:10EE9000FDFD63681A8899788368002B33D0101CB5
:10EEA00026E04B689A7813091207120F012A02D044
:10EEB000022A08D010E0013BDBB20025022B0ED85D
:10EEC000124AD55C0BE0012B08D0023B5A42534159
:10EED00005255B421D4002E0002500E00425FFF708
:10EEE000D5FD63681A88C368002B0CD0101C291C40
:10EEF000984708E0FFF7CAFD63681A880369002B8A
:10EF000001D0101C9847002070BDC046EE70020072
:10EF1000F0B51C1C2E4B87B001921A78071C0020FC
:10EF20000E1C824252D102F01DF8002848D1002C5C
:10EF30000FD0222003A90394FFF786FF002808D0F2
:10EF4000082804D011384742784104303EE00620BA
:10EF50003CE000236A4602A8137201F0D3FA011EB6
:10EF60002ED103AC0C22201C04F000FA1022194B05
:10EF7000A271E271227A012503932A4302231A43E4
:10EF800004210A4361792E40A94322722F40720066
:10EF90000E1C3E4323719E43019B072716433B40B3
:10EFA0001C229B0096431E430B48211C667101F0F6
:10EFB00019FB031E06D0042807D00620082B05D015
:10EFC000092003E0024A157000E0381C07B0F0BDCC
:10EFD0001D3400204DEE01001C34002008B5084807
:10EFE00001F072FB0023984207D0042804D00623C6
:10EFF000082802D0092300E00723181C08BDC046DA
:10F000001C34002073B500230193104B01AD1B7815
:10F010000E1C291C2B7001F065FD041E04D0092371
:10F02000052810D104230EE0281C311C01F014FB2C
:10F03000231C002807D0042804D00623082802D067
:10F04000092300E00723181C76BDC0461C340020AD
:10F05000A2DF7047A3DF704763DF704710B586B04B
:10F060006C46073400232370C11AC97B02AA995445
:10F070000133102BF8D1101C211CFFF7EDFF0023EA
:10F08000984200D12378181C06B010BDF0B5418A13
:10F09000037885B0041C01910126002B1CD0831934
:10F0A0000093214B00221D68AA4220D01121514318
:10F0B0001E4F0023C9198C46981E012805D96146A8
:10F0C000CE5C0099C85C86420FD10133102BF3D17E
:10F0D00011235A43BF183E7C6B469E7303AB58887E
:10F0E00001990004084305B0F0BD0132DCE7009847
:10F0F000FFF7B4FF2378071C061C002B01D1123444
:10F100000094082DE8D011246C43084B00991C1979
:10F11000201C102204F008F90023A370E370024BB6
:10F12000013527741D60D7E72034002024340020E7
:10F13000F0B597B001931CAB049001CB30271B882E
:10F14000059102931EAB1B88151C039320AB1E88F0
:10F1500021AB1B781740069322AB1B780793002F37
:10F160000DD02221022369440B700123191C1022A7
:10F17000114308A80B1C0170212169440B700FACCE
:10F18000201C00211C2204F0F1F8002325709F426E
:10F1900000D008AB6361002E05D01F9A002A02D070
:10F1A00062602681668109AC002306990798238056
:10F1B00001231940C90003401A010398CBB20299F8
:10F1C00013430A1A511E8A4102210B431343A370B1
:10F1D00032231D421FD00198013804281BD8227801
:10F1E0000F239A4304F01CFD0305070C11000121B5
:10F1F00007E001210AE001210A431340302208E020
:10F2000002210A431340102203E002210A43134063
:10F210002022134323700C231D421FD00198013874
:10F2200004281BD862780F239A4304F0F9FC0305E5
:10F23000070C1100012107E001210AE001210A4326
:10F240001340302208E002210A431340102203E059
:10F2500002210A4313402022134363700AAD281C85
:10F260000021142204F082F80599029A039B1C984D
:10F270000A912A81AB8128610FA904982A1C239B3B
:10F280006C60FFF7E5FE80B217B0F0BDF0B589B055
:10F290001D1C0EAB1E880192AA1B0F1C531E9A4107
:10F2A0000221012300900A436846191C8272102231
:10F2B00003AC1143017241721422201C002104F09E
:10F2C00055F8019A02A9616022610098211C0F9AE9
:10F2D00003972581A681FFF7BDFE80B209B0F0BD7E
:10F2E00008B500F019F808BD38B50023C356041C52
:10F2F0000D1C013304D1064806492422FFF7F0FF14
:10F300006368002D01D0E26800E02269136038BD17
:10F31000F17002000971020000B599B068460F2132
:10F3200000F065F806A80F2100F061F80CA80F2185
:10F3300000F05DF812A80F2100F059F8684601218D
:10F34000FFF7D2FF06A80021FFF7CEFF0CA800218F
:10F35000FFF7CAFF12A80121FFF7C6FF962000F0B1
:10F36000CCF868460021FFF7BFFF06A80121FFF790
:10F37000BBFF0CA80121FFF7B7FF12A80021FFF780
:10F38000B3FF962000F0B9F8D8E70FB4012008B514
:10F3900003F060FF38B50023C356041C0D1C013375
:10F3A00004D1064806492422FFF79AFF6368002D1E
:10F3B00001D0E26800E02269136038BDF1700200FC
:10F3C0000971020070B50D1C041C161C00F09CF89D
:10F3D00001350BD0201C311CFFF7DCFF201C012164
:10F3E00000F0B0F8201C002100F0A6F870BD08B5B0
:10F3F0000022FFF7E7FF08BD38B50368041C1B684F
:10F400000D1C984763681D6038BD38B50368041C3F
:10F41000DB68984763685A682368002A02D19B68B2
:10F42000984714E05B681568984763682D1A002DAB
:10F4300008DC5A68916859601B68002BEAD0506854
:10F440009847E7E75B68226818681369984738BDF2
:10F45000F8B50D1C72B64B600A60416800234C6819
:10F46000002C05D02768D61B02D4231CA468F7E71C
:10F47000002B05D103684D601B69101C984700E004
:10F480009D60AC6062B6F8BD08B572B6426853685C
:10F490008B420FD19B6853600268002B02D19368A6
:10F4A00098470CE018681369984708E09A688A4200
:10F4B00003D0131C002BF9D101E08968996062B672
:10F4C00008BD08B503685B68984708BD00487047E9
:10F4D000BC71020008B50248FFF797FF08BDC0469F
:10F4E000BC71020038B5041C00F012FD051C00F0D0
:10F4F0000FFD401BA042FAD338BD08B5FA239B008C
:10F500005843FFF7EFFF08BD01704B1C0AD00123E1
:10F510008B404360044BC360044B0361044B436165
:10F52000044B83607047C046080500500C0500502E
:10F53000100500501405005008B5007840B200F0E6
:10F540001FF808BD38B50023C356051C0C1C013339
:10F5500004D1094809492A22FFF7C2FE002C01D034
:10F56000012C07D10022AA56A023C132FF329200FB
:10F57000DB05D45038BDC046F1700200C4710200F2
:10F5800038B5041C0D1C431C04D10A480A491A2230
:10F59000FFF7A6FEA023A000DB05C018E023DB00D8
:10F5A000C2580C218A43C250C258AD001543C55001
:10F5B00038BDC046F67002006072020002780D4B42
:10F5C0009200D218A223DB0010B58020D45840034B
:10F5D0002043D050002902D0D158074806E0D05827
:10F5E00006490140D150D058802149020143D150F1
:10F5F00010BDC0460060004003000300FFFFFCFF99
:10F60000114A00211165114A114B1188114A995074
:10F61000114A1178002904D010490888A821C9008E
:10F6200058505178002903D00C4948880C4958504B
:10F630009278002A04D0094A9188A922D2009950D0
:10F6400001221A607047C046FCA000401828002024
:10F6500000A000404C050000C23400201A28002001
:10F6600044050000164B002210B55A60904210D19C
:10F67000144A012198509950134A06219850A1220A
:10F68000D2009850A222D2009950104A1188104AF4
:10F690009950104A410051308A5AFF3080001A5068
:10F6A000C2210D4A890054580C4820408024E403AC
:10F6B000204350508021C900116001221A6010BD02
:10F6C00000A00040FC0F00000405000018280020E6
:10F6D0004C0500001A28002000E100E0FFFF00FFB9
:10F6E000E022520010B5A0238418DB05A4000122FB
:10F6F000E2500C4C82401A510B4B8900C9180B4A3E
:10F70000A223DB00CA50C046C046C04601230B609E
:10F71000074B00021843A223DB00C850C046C04676
:10F72000C04610BD0C05000000600040031F020031
:10F730000300030010B5002A02D0FFF73FFF17E0D7
:10F7400002780C4B9200D218A223DB00D4580A484E
:10F750002040D050002902D0D158084806E0D058A7
:10F7600007490140D150D058802189020143D1502E
:10F7700010BDC04600600040FFFFEFFF0300030024
:10F78000FFFFFCFF0378F7B5041CFF2B04D12648CC
:10F790002649F422FFF7A4FD2378254A0021D154FD
:10F7A000244B00222578244E1A6501239D40736066
:10F7B000224B23491F88695A381C019105F030F803
:10F7C000002104F073FD04F03FFB1E4B1C4982B284
:10F7D000EA526A52002A04D10121E952201C111C6C
:10F7E00014E0BA4206D1013A201C0021EA52FFF788
:10F7F000E5FE0DE0019A002A01D0BA4208D1019B32
:10F80000201CDA1B53425A41D2B20121FFF792FF6A
:10F810008022C12312039B00F2500B4A80239B00DD
:10F82000F25001233360F7BD647402007C7402005F
:10F83000C2340020FCA0004000A000401828002096
:10F84000BC3400201A280020080800002C4BF7B513
:10F850002C4C00221A650123061C0D1C081C636039
:10F86000002104F087FA002809D1FE21281C89050F
:10F8700004F094FA002803D0FE25AD0500E0002531
:10F88000214B347821491F886400615A381C01914A
:10F8900004F0C6FF011C281C04F008FD04F0D4FA93
:10F8A0001B4B1A4982B2E2526252002A04D1012152
:10F8B000E152301C111C14E0BA4206D1013A301C4E
:10F8C0000021E252FFF77AFE0DE0019A002A01D0F2
:10F8D000BA4208D1019B301CDA1B57427A41D2B29E
:10F8E0000121FFF727FF07498022C12312039B0054
:10F8F000CA50084A80239B00CA5001230B60F7BD01
:10F90000FCA0004000A0004018280020BC340020CB
:10F910001A28002008080000CB17104A9B0F00206F
:10F92000106559180E480F4B01225A6089100E4A73
:10F93000814202D90121494202E0042900D805216F
:10F9400011808021C1220903920099500749802229
:10F950009200995001221A607047C046FCA00040F6
:10F96000FFFF000000A00040182800200808000049
:10F97000F7B5041C0E1C081C514902F0CDF9C5B2A4
:10F98000071CFF2D04D14F484F49CE22FFF7A8FC9A
:10F990004E4BFFB2D95D012200290FD059780029C2
:10F9A00002D15A70151C0AE09978002902D19A7088
:10F9B000022504E04648FFF7E8FC00E0DA55301C79
:10F9C0006670291C2570FFF78BFE42496A00D2B28F
:10F9D000414BAF007F18561C3F49D000C018B446B9
:10F9E0003E4BF6007618C750F7503D4BAF00FF185E
:10F9F000A223DB00C7503B48F050081CA021C900DF
:10FA00004658012301961F1C6646B740BC461F1C82
:10FA100097403A1C6646019F32433A434250002DBC
:10FA200002D18022D2059367281CFFF71BFE201C01
:10FA30002D49FFF771FF257801222C4B2C4E954064
:10FA400000211965AE5B2B4B2B4F7A6001961E8807
:10FA5000301C04F0E5FE002104F028FC04F0F4F969
:10FA6000264B234982B2EA526A52002A04D1012667
:10FA7000EE52201C111C14E0B24206D1013A201CA7
:10FA80000021EA52FFF79AFD0DE00199002901D00B
:10FA9000B14208D1019B201C9A1B56427241D2B23E
:10FAA0000121FFF747FE8022C12312039B00FA5079
:10FAB000134A80239B00FA5001233B60F7BDC046E8
:10FAC000FC720200697402007C740200C2340020DF
:10FAD0001A7502000060004000F0014014050000AB
:10FAE00040A100404CA10040204E0000FCA000407E
:10FAF000BC3400201828002000A000401A28002054
:10FB000008080000962210B50123D200914203DCC0
:10FB10009E210268C90212E00A4ADC00A458A142F0
:10FB200007DA013BDB00D21801685268064BCA5065
:10FB300007E00133112BEFD1802102684905024B08
:10FB4000D15010BD5C75020024050000F8B5284BAB
:10FB5000284C0360A023DB050F1C161C01211A5939
:10FB6000B9400A431A511959802252000A431A51C6
:10FB70001A590121B1408A431A5119591E4A051CCC
:10FB80000A4096211A518901FFF7BCFF2B681B49D7
:10FB900000225A50A021C900042058500121996028
:10FBA0001960191CFC31CA6015495A506A60A122BB
:10FBB0000821D2009950134A0A219F50A222D20054
:10FBC00099501E517B1C03D0381C0321FFF7D8FC31
:10FBD000711C03D0301C0321FFF7D2FC0A4B012219
:10FBE0001A60291C0822094803F09EFBF8BDC04694
:10FBF0000020004014050000FFFBFFFF6C05000023
:10FC00001C0500000C050000C8340020D43400207E
:10FC1000124AC1239B00D15810B5080603D51049DC
:10FC2000096A002911D1D3585A0716D50C4BDA6846
:10FC3000002A12D00024DC60084AA323DB00D0583D
:10FC4000C0B2FDF77FFD211C00E00121054B1868C3
:10FC5000002802D0044B1B68984710BD00200040CC
:10FC6000FC200040D0340020CC340020034B19602D
:10FC70004168034B8900CA507047C046CC3400200D
:10FC8000D034002030B503681E4C1819444260413E
:10FC90004000002A1BD0002903D0012905D1802172
:10FCA00000E00421C12292009950174BC02292001B
:10FCB00040B29C58C100FF258D40AC43C0258D400B
:10FCC000291C21439950012282401A6018E0002922
:10FCD00008D0012914D1C222920080249C509B5844
:10FCE0009B0806E0C2229200042199509B580121F2
:10FCF000DB09994304D001238340181C034BD867C8
:10FD000030BDC04600E0FFBF00E100E004E100E0DC
:10FD100003681A1CFC32106A0128FAD10020106214
:10FD2000014AC9B2995070471C0500000368FC33B2
:10FD3000186A01384342584170470000F7B50E1C5D
:10FD400001930223041C0D1C171C9E43012E13D18A
:10FD50001F4BA022D205D158301CB8400143D150CE
:10FD6000381C0321FFF70CFC2368A122D2009F500E
:10FD7000184A99580E439E50AB1E012B16D8144BAF
:10FD8000A022019ED2050125D158281CB0408143F4
:10FD9000D150301C0321FFF7F3FB2368A222D200CD
:10FDA0009E500C4A99580D439D500FE0002D0DD1E7
:10FDB00023680122A1215242C9005A50A221C90040
:10FDC0005A50044A0120995881439950F7BDC046C2
:10FDD000140500006C0500000A490B4A88680B4BAB
:10FDE000002808D0186801301860002088600220C0
:10FDF000D2218140505006491B6852581806190AF2
:10FE000010437047FC10014000100140E034002016
:10FE1000040500002F23C046C046C046C046C04669
:10FE2000C046C046C046C046C046C046C046C046A2
:10FE3000C046013B002BEED170470000174B70B558
:10FE40009A68002A0AD0164A02201168013111600E
:10FE500000229A601349D222824088505B6C114C78
:10FE6000002B19D0104D2B78002B15D00F4B1E688E
:10FE7000FFF7B2FF361A002E0EDC084B0021596442
:10FE8000D22280235B029200A3502970C2218900F4
:10FE90006350A350FFF71EFB70BDC046FC1001402D
:10FEA000E034002000100140E5340020DC34002064
:10FEB00038B5124C2278002A1FD1114BA121C9005C
:10FEC0005A500222D22191405A50C12191405A5099
:10FED0000C4AC421890055580B482840C0252D02E2
:10FEE000284350508021C020890240000125115034
:10FEF00011601D60FFF78EFF257038BDE4340020CF
:10FF00000010014000E100E0FF00FFFF00000000E2
:10FF100008B50B4B1B78002B01D1FFF7C9FFFFF78A
:10FF20005BFF064B044A03F06DFF4904C00B084316
:10FF300008BDC046C046C04640420F000000000059
:10FF4000E4340020C046C0462F4B70B51B78061C19
:10FF5000002B01D1FFF7ACFFFFF73EFF254B244AF2
:10FF600003F050FF4B04C00B002400251843CD0BB9
:10FF70000023321CA4185D4180231B06984205D93A
:10FF8000002E03DB1C4A1D4BA4185D41610CEB03E2
:10FF90000B43E2031A481B4980185941154B144A78
:10FFA00003F010FF194D041C2B78194E002B02D0C2
:10FFB000336898421BD0FFF70FFF201A022802DC9B
:10FFC000FFF70AFF841C2102124BA822D200090A63
:10FFD00099502A783460002A09D101222A70D2214E
:10FFE0008022520289005A50C12189005A5070BDA6
:10FFF00040420F000000000000000000010000006F
:020000022000DC
:100000003F420F0000000000E4340020E5340020EF
:10001000DC34002000100140074B1A78002A0AD077
:10002000064A8021C220490280001150D22080005F
:10003000115000221A707047E53400200010014072
:10004000024B00229A605A647047C046FC1001407F
:100050002EDF704732DF704733DF70474CDF704769
:1000600008B5054B01201A7850401870034B1B68E7
:10007000002B00D0984708BDEC340020E834002065
:1000800038B50C4B051C15200C1C1A60FFF7E2FF5D
:1000900000280ED11520291CFFF7DEFF002808D10B
:1000A0001520FFF7D5FF002803D10320211CFFF7FF
:1000B000D5FF38BDE83400207FDF704782DF70470E
:1000C000A7DF7047A9DF7047AADF7047002070479D
:1000D00000207047002070470020704700207047C4
:1000E0000020704700207047F0B58BB06C460E239F
:1000F000E382039001914B780C225343244A163437
:10010000D318188906A9221C0323FFF7DDFF002856
:100110003BD1019B18275B781E4D5F4300933B1C2E
:1001200026880833EB18181C06A9321C029303F02A
:10013000ECF82C1C00280DD1009A0C235343144AD0
:10014000D318997A022319401FD1E819182203F015
:100150000DF91AE0ED196B68002B01D00E4F00E08D
:100160000E4F009B18256B430322E250E3185E609C
:1001700006A9321C029803F0D7F8019B039859781E
:100180002A1C694338236118B84700200BB0F0BD22
:10019000F23400208C3500201D1202009D11020057
:1001A00008B5FFF7A1FF08BDF7B5041C0F1C6A4690
:1001B0008178224800F0CAFF00283DD162780C21E6
:1001C0004A431F4B9A18927A530605D4022F03D044
:1001D000012F03D11B4D02E01B4D00E01B4DA17808
:1001E0001C2671431A4B68465918321C0023A84735
:1001F000002813D1022F1FD063780C225343104ADA
:100200004021D3189A7A68468A439A726178114BD2
:100210007143321C5918331CA84701E0022F0BD040
:1002200023780C2253430C4A6846D3189A7A0B4B16
:100230009200D358211C9847F7BDC046B435002022
:10024000F23400209D1102001D120200CD000200B8
:100250000035002070350020A4350020F475020020
:10026000F7B50190437818215943264A264F501874
:100270004468002C0FD00C2058433818807A45B2BF
:10028000002D07DA450605D40E1C0836A5B29619CE
:100290008C5802E00024251C261C0C225343FB181A
:1002A0001889311C2A1C231CFFF70CFF0B280BD1CB
:1002B000019A311C53780C225343FB1818892A1CCD
:1002C0000123FFF7FFFE0124002800D00F48012C76
:1002D00017D1019D0C216B780D4A4B43FB181889EF
:1002E000FFF7EEFE00280CD00A4B984208D00828F1
:1002F00006D0094B984203D0112801D0002000E01D
:100300000248FEBD8C350020F23400204180000000
:10031000FFFF0000023000000430000008B5FFF7C6
:100320009FFF08BD70B5031C487818246043094D31
:100330000E1C2818191C221C382300F0AFFF0028BF
:1003400006D173785C432D196B68013300D1686066
:1003500070BDC0468C35002008B5FFF7E3FF08BD2F
:10036000F0B51D1C434B161C1A6893B001900F1C6E
:10037000002A7CD01898542879D803ABFF22002497
:1003800069465A709A70DA701C700C760B950A9058
:10039000A1B2394804AA00F0D9FE002809D1019879
:1003A00004A9082202F0B1FF002802D103AB9C701F
:1003B00002E00134042CEBD103ACA278FF2A56D022
:1003C000042F0AD1189A06AB542A01D1202200E04A
:1003D00040221A701A7803213BE0284BEB1A6F2B4E
:1003E00011D8274B002E04D10121186891400842F2
:1003F0003DD0012191400A1C1968914319602022C7
:1004000006AB1A7020E01F4BEB1A1B2B09D806AB6A
:1004100020221A70002363700CAB0B9318230A93ED
:1004200012E019482D1A172D21D830236A46137669
:10043000002363700123E370144B997A022319405F
:1004400002D1182202F092FF06AB032F0CD11A78CA
:1004500001210A4307481A7009AB079306A90368EC
:10046000321C201C984702E01A780221F1E713B0F1
:10047000F0BDC046A4350020B43500200035002072
:10048000B0350020703500208C350020F23400207B
:1004900070B51C2444430E4E051C3019002134193C
:1004A0000622113002F062FF201C0021102202F00F
:1004B0005DFFFF232374A37601235B422383012284
:1004C000044BAA40151C1A68AA431A6070BDC046A6
:1004D00000350020B035002037B581B2051C6A46D2
:1004E000074800F033FE041E08D16846542100F08E
:1004F0001DFF041E02D1281CFFF7CAFF201C3EBDB1
:10050000B4350020F0B5051C85B0002855D02C4B23
:1005100000242C481C605C729C72012383725B4235
:10052000211C07220381C37202F020FF2648211CF0
:10053000182202F01BFF201CFFF7AAFF234BFF220B
:10054000E2540134042CF6D16A46214F542393809F
:10055000204B6846391CD480009300F067FD3E1C98
:1005600000282BD11C4B2C7801221A701D1C002C4A
:100570001AD1A1B2301C02AA00F0E8FD071E0CD16E
:100580001C22131C6343154802A9C0183B1C00F031
:1005900085FE002804D02F7010E000232B700DE0A2
:1005A0000134042CE5D109E06A46D1889388381CCF
:1005B000594389B200F0BAFE00E0094805B0F0BD29
:1005C000A4350020F23400208C350020ED340020CA
:1005D000B435002061030200F13400200035002012
:1005E0000E800000F8B5174B071C1B780D1C002B64
:1005F00022D0002822D0002920D00B68002B1DD04B
:10060000114C2668002E1BD1201C08C00531052284
:1006100002F08AFE207A2B79012188430222A372FC
:100620001043042398432072E07901430A439A431C
:10063000E271301C3E7004E0044802E0044800E02F
:100640000448F8BDF1340020A435002008800000E3
:100650000E80000004800000154B1B78002B22D078
:1006600000281ED000291CD00378002B1BD1114B71
:100670001B68002B17D04278002A16D10E4B9B7AAC
:10068000012B12D02420184003D001230B70101C22
:100690000CE05BB2002B02DA02230B7006E008705C
:1006A00004E0064802E0064800E006487047C046FD
:1006B000F1340020A4350020F23400200E80000028
:1006C0000880000010800000104B10B51B78002B34
:1006D00019D0002815D00478002C14D10C4B1B68BD
:1006E000002B10D0201C1C2363430A4AD3189B7E86
:1006F000FF2B02D0201CFFF7EFFE0134042CF2D1B7
:1007000002E0054800E0054810BDC046F134002075
:10071000A4350020003500200E8000000880000075
:1007200013B5041C81786A460B4800F00FFD0028C1
:1007300010D160781C235843084A694610181A1CC7
:1007400000F0ACFD064B68469A7A064B9200D358EF
:10075000211C984713BDC046B435002070350020D9
:10076000A435002004760200F0B5C54A8FB0127897
:10077000FF23061C0393002A00D1AEE1C14A116891
:10078000002900D1A9E104AD05AF6B70AB70EB702F
:10079000031D7B602A233B81038800212970BA4C0A
:1007A000102B22D0A17A82880191890707D5B749F9
:1007B0008A4200D145E12189914200D141E1172BC4
:1007C00000D1A8E007D8132B54D0142B2CD0112B18
:1007D00000D082E10EE01C2B00D118E1522B00D199
:1007E0000DE1182B00D078E1E1E0A37ADA0700D51B
:1007F0002CE172E1019A022301999A43A27209073E
:1008000007D553B2002B0BDA281C0021FFF7CCFCD4
:1008100006E0A878FF2803D0FFF73AFEFF23AB706D
:100820001023A3721223F3E0E37A994FFF2B16D122
:10083000F28900231C2159437918098B91420BD16D
:100840000199082203930A43DBB2E372A272281CC7
:10085000AB70FFF765FF02E00133042BEAD1E37AC6
:100860000021FF2B00D08B49B0883A1C0023FFF7F2
:1008700025FC32E1019A3B7004231343A372E37A0F
:10088000FF2B22D100271C207843814B1818837E30
:10089000FF2B15D12278031C1833022A07D0FD2222
:1008A0009A70211C0722103002F03EFD01E0FE226A
:1008B0009A7003AB1F700399CBB2AB70E37210E078
:1008C0000137042FDFD1744C0CE0744816230E223C
:1008D000083000213B7002F049FD019A4423134384
:1008E000A37200240021684B0B91DB7A1C22534336
:1008F000674A0D91D3180C93664B624A089309918D
:100900000A91B088043208ABFFF7D6FB002800D06C
:10091000E3E0221C7EE05B4901224B7A9343019A7B
:100920004B7204239A431423A2723B70B379002BB9
:1009300004D0E07AFFF7D0FDB2796BE0F379590784
:1009400067D5AB78FF2B64D008210A43F17AA272F5
:100950008907C90F012906D11C225A434C48821825
:10096000907E88439076E27AFF2A52D02178484AD6
:100970001C2602290CD05E439619301C0722103029
:10098000211C02F0D1FCB37E02229343B37609E02E
:1009900073434049D318498A1A1C19839B7E01214D
:1009A0008B439376281C0121FFF7FEFB31E0B379DE
:1009B000112B15D1019A120712D5384800210E22A9
:1009C000083002F0D3FC162301993B7060230B43DF
:1009D0002C4AA372537A2B49022213434B7218E01C
:1009E000019A80235B421343A37215233B70254B6E
:1009F000281C9A7A2A4B9200D358984709E021493B
:100A0000274B8A7A281C9200D358984765E0132315
:100A10003B7000221B4905AC0B68281C211C984721
:100A20002378122B59D11848837A012B55D00123F2
:100A300083725B420381C3720021072202F096FC9D
:100A40004BE0E27AAA7000226A70B8E61123002215
:100A50003B706A708388871D23810223A372201C48
:100A6000391C072202F060FC737D0026D9071ED5D1
:100A70000C4A5B08D35CFF2B25D0039323E0C046D0
:100A8000F1340020A4350020F2340020FFFF0000E4
:100A90000035002070350020438000008C35002098
:100AA000E4750200ED3400200136042EB1D01C2381
:100AB00073430B48391C1030C018072202F025FC84
:100AC0000028F1D1039603990A22CBB2E372A272F5
:100AD000281CAB70FFF724FE9BE70FB0F0BDC046AB
:100AE0000035002030B5002912D00A78002A11D133
:100AF0000A4B1B68002B0DD0FF23094C8B702589F6
:100B00000523854207D14A70E37A8B70131C02E0FB
:100B1000044B00E0044B181C30BDC046A435002037
:100B2000F23400200E8000000880000029DF7047AA
:100B300028DF704737B5094B021C19781420414350
:100B40005C18E068217905016369201CE4880C3099
:100B50000094034C2C59A04737BDC046BC3500203B
:100B6000E8350020F7B5634C00932378061C0F1C72
:100B7000151C002B06D1009B134301D1022300E07A
:100B80000123237023780320013B052B00D9B0E01B
:100B9000181C03F045F8032334557E91564A8023F0
:100BA00051695B05013105D05069196989B203F0BB
:100BB00041F800E0586980235B051D6919691A69CD
:100BC0000138ABB289B292B2584379439208FFF729
:100BD000ADFF0223002800D18AE08AE0381CFFF72D
:100BE000A7FF002800D084E00323002D00D07FE081
:100BF0000099002922D13378042B48D177E0802353
:100C00005B051A6992B257433B4A5169013105D0DD
:100C10005069196989B203F00DF800E05869802322
:100C20005B051969013889B241432A1C381CFFF75A
:100C30007DFF00285DD1009A002A25D0042357E0CB
:100C400080235B051A69718892B257432A4A7F183C
:100C500001915169AD007F19013105D050691969C1
:100C600089B202F0E7FF00E0586980235B0519694B
:100C7000013889B24843019AAD182918009A381CE6
:100C8000FFF754FF002834D13378042B12D005230A
:100C90002EE080235B051869728880B24743AB0061
:100CA000D81931699208FFF741FF002821D1009B34
:100CB0001D431CD006231BE00F4A802351695B05AE
:100CC000013105D05069196989B202F0B3FF00E023
:100CD000586980235B051A691969013893B2584332
:100CE00089B202F0A7FFFFF723FF002801D10723F5
:100CF0002370FEBD0136002000100010F8B5324E02
:100D0000142233785343F3181C1D1B79E568042B18
:100D100018D0052B39D00F20022B54D12B4B6288D1
:100D20001888236980021918A388121A5D19284BA4
:100D300028189A4201D8920801E080225200FFF759
:100D4000F5FE3CE0A26823491301CB1819895889A4
:100D50005B6880277F05AB4203D14143638899429A
:100D600001D0022A0AD13969281C89B202F062FF37
:100D7000164B1B88C018FFF7DBFE20E03969281CE2
:100D800089B202F057FF011C09E080277F0539690D
:100D9000281C89B202F04EFFA388011C5D193A6934
:100DA0003B6992B2481C4A439BB243436088AA1AEB
:100DB00045195B1B92089B08201CFFF7D3FE0028F7
:100DC00001D10123B370F8BDBC35002002360020EC
:100DD000FF030000E8350020F8B5134C061C6578C9
:100DE00006A807880420022D1DD020782D18EDB20A
:100DF000012D01D9023DEDB21420454365196A6108
:100E00002A1C2E710C3241C941C2EB802F81A3787C
:100E1000002B01D0002003E0FFF770FF1128F9D06C
:100E2000637801336370F8BDBC35002008B5084B0A
:100E300000205B78834209D0FFF760FF002805D0CF
:100E4000031C113B5A1E93415B42184008BDC0462B
:100E5000BC350020F0B53F4A87B09378141C002BB6
:100E600075D03D49002393700A78082A06D10228DC
:100E700001D10B7065E0394A137062E0022803D09B
:100E8000032864D10D2060E0217814204843344DBC
:100E90002018011D8C4629880079013189B2019101
:100EA000298002280AD18E02614649880296029F53
:100EB000F517CE0F8F426E41059607E0052804D145
:100EC000D51F6E427541059301E005931D1C042852
:100ED0000BD1D31F58424341019866468102708866
:100EE000814205DB51424A4103E000231A1C00E025
:100EF0000022002D07D1002B05D1002A03D1059F28
:100F000001231F421DD0144800250570281CFFF73F
:100F100011FE227814235343114EE31801201D7152
:100F2000DD80D8601D615D611D8135806378013B86
:100F300063701318DBB2834201D8237001E0013AD9
:100F40002270FFF773FF002801D0FFF7F3FD07B011
:100F5000F0BDC046BC350020013600200036002020
:100F60000236002038B5294B00221A80284B012177
:100F7000D9601962274C28491A705A701A711A617F
:100F80001A765A629A70DA805A611A815A839A6282
:100F90009A830A8062691D1C80235B05013205D09B
:100FA0006069196989B202F045FE00E05869802342
:100FB0005B051A69023892B25043184A002110604A
:100FC000174A1160118191815181164A08211170CF
:100FD0006269013206D00F4A5069196989B202F07C
:100FE00029FE00E0586980235B051A6919690138F8
:100FF00093B2584389B202F01DFEFFF799FD002815
:1010000003D1094A0123AB70137038BD02360020AA
:10101000BC35002000100010F8350020FC35002001
:10102000E83500200136002000360020F0B5424BA4
:1010300087B01B780F1C0824002B79D0002876D0AD
:10104000002974D004680494002C70D080235B05C0
:101050001A69858892B20724954269D80F2D67D9FD
:10106000C0880190002863D0041C6C43334A039469
:101070001268261C0292A418314A05945169013164
:1010800005D05069196989B202F0D4FD00E05869B1
:1010900080235B051A69013892B2504305990724F1
:1010A000814245D81A69039992B2914207DD1869C5
:1010B000291C80B202F002FE89B2002938D1032037
:1010C00028400724002833D11E4A0424138894465C
:1010D000012B2DD0029C1C4A7C603B601C01029FAE
:1010E00011194F60049FA750019C0D814C81134939
:1010F0000C680D1C802149050F690130BFB280B218
:10110000BE4203D90F69BFB2F61B00E000260F698B
:101110000969BFB289B2E4198E42EBD219015218A3
:10112000013367462C6090813B80002400E00E2450
:10113000201C07B0F0BDC04600360020FC35002062
:1011400000100010F8350020E8350020114B30B5B4
:101150001C780823002C1AD0002815D0002A13D0A0
:101160000368002B12D10C4C2568002D0ED0258968
:101170004068694309186089454360682D18A94291
:1011800004D21360516002E00E2300E00723181C14
:1011900030BDC04600360020E8350020F0B5141CF4
:1011A0001C4A051C127885B00F1C0820002A2ED07E
:1011B00000292BD0002D29D029680720002926D10D
:1011C000154E3268002A22D06968039132897189EC
:1011D000766851438C4603996644B14217D2002C7D
:1011E00015D0944213D8E618964210DC0322102042
:1011F00017420CD113420AD1114208D10093291C85
:101200003A1C231C0220FFF7E7FD00E00E2005B08A
:10121000F0BDC04600360020E8350020F0B5141CB3
:101220001C4A051C127885B00F1C0820002A2ED0FD
:1012300000292BD0002D29D029680720002926D18C
:10124000154E3268002A22D069680391328971896B
:10125000766851438C4603996644B14217D2002CFC
:1012600015D0944213D8E618964210DC03221020C1
:1012700017420CD113420AD1114208D10093291C04
:101280003A1C231C0520FFF7A7FD00E00E2005B047
:10129000F0BDC04600360020E8350020F0B5161C31
:1012A000204A85B0127802900D1C0824002A36D0FE
:1012B00000292FD000282DD00C68002C2CD11A4FDB
:1012C0003A68002A28D04A68788939894843844690
:1012D0007868844462451FD2002E1DD08E421BD8F0
:1012E000F018884218DC02980321084216D10B42FC
:1012F00014D11140039111D19918321C02F014F845
:101300002A6800961301FE58281C0321039A029BA9
:10131000B04704E00E2402E0072400E01024201C63
:1013200005B0F0BD00360020E8350020154B73B540
:101330001B78041C0D1C0820002B22D0002C1FD071
:1013400022680720002A1CD10F4A1368002B18D0EE
:1013500056681189528963684A439219934210D2A0
:1013600010209A070DD1981B02F0A8FC07200A1E36
:1013700007D100912B1C211C0420FFF72DFD00E05C
:101380000E2076BD00360020E83500202EDF7047A5
:1013900051DF704710DF704711DF704761DF704722
:1013A00008B5081C111CFDF78DFC08BDF0B5254BD8
:1013B00085B01B78002B42D0234E244F3268544214
:1013C00054413A68E4B255425541EDB2002C34D153
:1013D00003A8FFF7DDFF05280AD0002804D0211C50
:1013E000221CFDF771FC04E003983368984700E085
:1013F0000124002D1ED1164B03A91B880B80154B11
:101400001B68181C0193FFF7C9FF051E052D0BD0A3
:10141000002805D000210A1CFDF756FC002504E039
:1014200001983A68904700E00125002CCED0002DAD
:10143000CCD004E0002C02D1C8E7002DDBD005B0F1
:10144000F0BDC046043600200C36002010360020C7
:10145000063600200836002038B5041C0720002975
:1014600013D08D0711D1094801600949201C0A8059
:10147000084A09491360FFF78DFF002805D1074B83
:10148000012216201A70FFF781FF38BD08360020B0
:101490000636002014360020A11302000436002076
:1014A00008B5FFF779FF021C531E9A41014BD2B2D7
:1014B0001A7008BD04360020002803D0024B1860C3
:1014C000002000E00E20704710360020002803D0D6
:1014D000024B1860002000E00E2070470C36002000
:1014E00008B5074B1B68002B07D09847002806D08B
:1014F00000210A1CFDF7E8FB01E0FFF757FF08BDDC
:101500001436002008B5FBF7BFFAFBF7C5FBFCE774
:1015100010B50021041C402201F028FF221C80325B
:101520000023201C1380538010BD0000F7B5FA265D
:101530000093B60008AB041C1B78301C48431449C8
:10154000171C019302F076FB85B2301C258078438E
:101550000F4902F06FFB009B80B2A380019B60806B
:10156000A371032D01D80423238022888023DB016B
:101570009A4200D92380032801D80422628062881D
:101580009A4202D98023DB016380201CFEBDC04645
:101590007102000038B50E4B041C083303600023B1
:1015A0004360A160C360FE230D1C5B058800994267
:1015B00001D90120404200F07BFC013D031C013DAC
:1015C000AA1C02D0002204C3F9E76060201C38BDC9
:1015D0001876020070B5041C0025E3689D4209DA04
:1015E0006268AE00905900F036FC626800239351A7
:1015F0000135F2E70023E36070BD000010B5054B34
:10160000041C08330360FFF7E5FF606800F023FC6B
:10161000201C10BD1876020010B5041CFFF7EEFF69
:10162000201C00F018FC201C10BD38B5051C00243F
:10163000EB689C4211DA6A68A30099584B69002B49
:1016400004D10B68002B06D0984704E008680028F6
:1016500001D0043198470134EAE738BD90DF704784
:1016600092DF704793DF704794DF7047036810B5CF
:10167000021C002B0BD0591E4068116099000023FA
:1016800004338B4205D0D4186468D450F8E70120A5
:10169000404210BD036810B5021C002B0BD0591E30
:1016A000406811609900002304338B4205D0D418A0
:1016B0006468D450F8E70120404210BD73B58180C2
:1016C0000025041C3F300570FF260138C6700570E8
:1016D00001AE022042342070081C311C738032801D
:1016E000FFF7BEFF031C281CAB420FD02278022A52
:1016F00001D103222270112B07D0054A934202D058
:101700000620102B02D1042000E0052076BDC04643
:1017100002300000F0B5051C85B0019142352B78F0
:10172000041C0026042B52D1019A062713889E42DE
:1017300021D27743019A274BD719BA889A4209D107
:10174000231C41331B78242058432018BC3079884F
:1017500000F076FBBA88204B9A4209D1231C413312
:101760001B78242058432018BC30798800F06AFB8D
:101770000136F6B2D8E7013B5F43231CD71941334A
:10178000211C7A881B783F3109780132013392B2EB
:101790008B4208D1231C40331B7818214B43403324
:1017A000E3185B8B04E024214B43B833E318DB8B55
:1017B0009A4207D203A90A804B80A088FFF752FF04
:1017C000002804D02B78042B01D101232B7005B005
:1017D000F0BDC0460129000002290000F7B5061C33
:1017E00042363378041C022B4ED1271C231C3E3773
:1017F0003F333D781B78AB4227D9631CDB7F002B3E
:101800000BD124236B43E318BC331A79002A15D17A
:10181000628EDB8A9A4211D113E0012B0ED1242172
:101820006943B83161180B7A012B07D1201C0931AB
:101830002130102201F069FD002802D001353D70F1
:10184000D3E7231C41331D70F8E72423013D5D439A
:10185000231C40331B7818214B43B83565192A8C5B
:101860004033E31801325B8B92B29A420AD201A94B
:101870000A804B80A088FFF7F3FE002804D033785D
:10188000022B01D103233370F7BD000070B5041C97
:10189000231C42331B78012B65D1261C231C3C36AC
:1018A0003D3335781B78AB422ED9A379002B0CD170
:1018B00018236B434033E318191D1B79002B1FD1EC
:1018C000228B4B8A9A421BD10FE0012B18D1182191
:1018D0006943403161180B79012B11D1E01D0531AD
:1018E000102201F012FD00280AD1E369002B07D075
:1018F00018206843221C4032201815704430984745
:10190000337801333370C3E7013D18225543403526
:101910006519698B144B99421FD1636B002B18D04A
:10192000211C40310878FF2813D001310978FF29A4
:101930000AD1131C4343E31844339A8AA188DB8AF3
:10194000201CFFF7BBFE0EE0242048432018BC30CB
:101950009847201CFCF732FC05E0A0880022FFF726
:101960007DFE0028F5D170BDFFFF000037B5041CD7
:1019700042342378032B26D104232370031C4033E5
:101980001B78FF2B1DD0021C41321278FF2A18D081
:1019900024214A4318256B43B8328218128C4033F5
:1019A000C31801325B8B01A992B20A804B809A4224
:1019B00007D28088FFF756FE002804D02378042B36
:1019C00001D10123237037BD73B5051C2B68AC69A9
:1019D000002B1CD0231C423305221A706E680F495D
:1019E0000422684601F0A0FC18237343E318443333
:1019F000998ADB8A01AA11805380A0886946FFF783
:101A000033FE002809D0281CFFF730FEDEE7423401
:101A10002378052B01D10123237073BD28760200A2
:101A2000F0B5031C3D331F780A8889B0BA18D2B2CA
:101A3000041C052A00D905221A70EE2300225B003F
:101A4000E250EE2301225B00E31852425A609A6092
:101A5000DA601A615A6118237B43E3181E1C0D1CBF
:101A60005836231C3D331B789F4230D22B79002BF4
:101A70000ED1EE225200A358591C9B00E318DD330F
:101A8000FF33A1505F60EA882B89328073801AE0AF
:101A90006888002303A900900B7003A9C8180022CE
:101AA00001334270102BF8D1E8882A89009B0090FE
:101AB000301C0192143814224B8201F035FC009B3B
:101AC000019833807080013708351836C9E7EE2356
